:020000020000FC
:100000001FC0FFC0FFC0FFC0FFC0FFC0FFC0FFC0D8
:10001000FFC0FFC0FFC0FFC0FFC0FFC0FFC0FFC0E8
:02002000FFC01F
:1000400002E00EBF0FE50DBF22242ABA27BA2FBC4B
:1000500005E00EBD0FE00BBD2ABC2DB82ABA27BAA9
:10006000B29BFECF2DBC2CBC599AB29B03C05999B0
:100070000AC0FBCF08E10DB9D59A03E455D003E4DB
:1000800053D0003819F42DB82EBCBAC0102F01E49B
:100090004BD0F02FB1E0A0E007E546D00D93A0349F
:1000A000D8F3B1E0A0E0173319F0183351F1D5CFF0
:1000B000EE27F695E795F695E795F03071F2F23078
:1000C00060F2DF2FCE2FB1E0A0E00D901D9001E097
:1000D00007BFE89507B700FDFDCF3296A034A9F71A
:1000E000EC2FFD2F03E007BFE89507B700FDFDCF1C
:1000F000EC2FFD2F05E007BFE89507B700FDFDCF0A
:10010000ACCFEE27F695E795F695E795B1E0A0E040
:10011000E199FECFFFBBEEBB0D910DBBE29AE19AD8
:100120003196A034A9F799CFB2998ACF0FB900E4DC
:0E0130000EB90EB106FFFDCF0FB1089500000D
:100200001FC01EC01DC01CC01BC01AC019C018C012
:1002100017C016C015C014C013C012C011C010C042
:020220000FC00D
:02024000FFCFEE
:00000001FF
