:020000020000FC
:107C000018E01EBF1FEF1DBF10E114B910E0109364
:107C1000C50015E11093C40016E01093C20018E1EE
:107C20001093C10010E0F12E10E41CBD13E41EBD42
:107C3000B1E0A0E0E0E01DB517FFFDCF4EB513E4C5
:107C40001EBD4F3FC1F3403821F410E01CBD0C9421
:107C500000001DB517FFFDCFFEB511E41EBD1DB51B
:107C600017FFFDCF3EB517E51EBD3D93A038B8F315
:107C7000B1E0A0E01DE00E942B3F142F0E942B3F9B
:107C80001F2F0E942B3F1DE00E942B3F20E81D91DB
:107C90000E942B3F2A95D9F7B1E0A0E0433321F0B1
:107CA000443319F10C94943EF695E795EF0113E0F7
:107CB0000E948E3E11E10E948E3E20E40D901D90A8
:107CC00011E00E948E3E32962A95C1F7FE0115E022
:107CD0000E948E3E11E10E948E3E17B716FF04C02F
:107CE00011E10E948E3EF9CFA3CFF695E795EF0103
:107CF00020E81F2F0E942B3F1E2F0E942B3FF99937
:107D0000FECFF2BDE1BD3D9130BDFA9AF99A132F35
:107D10000E942B3F31962A9591F7E6CF07B700FDD9
:107D2000FDCF17BFE89508951DE00E942B3F16E593
:107D30000E942B3F1F2D0E942B3F10E0012E11E0CF
:107D4000112E1AE0212E28B81DE017B910E01AB93B
:107D50005B9AFF28C1F412E50E942B3F5D98559A6B
:107D60001AE01A95F1F74398559813E01A95F1F730
:107D700012E70E942B3F4B99FECF439A11E40E94D9
:107D80002B3F11E0F12E12E0212E13E01A95F1F7AE
:107D900028B813E70E942B3F1FEF0E94E83E5334A0
:107DA000D9F7142F0E94E83E1F2F0E94E83E12E4EC
:107DB0000E942B3F1DE00E942B3F20E81D910E9456
:107DC000E83E0E942B3F2A95C9F7439A0C94743ED3
:107DD000552717FB02F808B8000012F818B83199B7
:107DE000506816FB02F808B8000012F818B831996C
:107DF000506415FB02F808B8000012F818B8319961
:107E0000506214FB02F808B8000012F818B8319953
:107E1000506113FB02F808B8000012F818B8319945
:107E2000586012FB02F808B8000012F818B831992F
:107E3000546011FB02F808B8000012F818B8319924
:107E4000526010FB02F808B8000012F818B8319917
:107E5000516028B808951093C6001091C00015FF16
:047E6000FCCF0895B6
:00000001FF
