:020000021000EC
:10FC00001FE015B91FEB14B912E01BB912E01AB9C5
:10FC100015E015BD1EE015B9599858EC56D1599A02
:10FC20001FE015B959985A95C9F7599A10E01093E1
:10FC3000C50015E11093C40016E01093C20018E14E
:10FC40001093C10010E41EBF1FEF1DBF1FE015B9C8
:10FC500055273BD1B1E0A0E012E50E9458FF35D115
:10FC600053955A3F08F038C01091C00017FFF7CFE6
:10FC70004091C6004F3F51F3413509F42DC011E4C6
:10FC80000E9458FF1091C00017FFFCCFF091C600F2
:10FC9000E0E0EF011FEF0E9458FF20E0433328F01F
:10FCA000473310F020E401C020E81091C00017FF96
:10FCB000FCCF3091C600132F0E9458FF3D93A2172E
:10FCC000A1F717E50E9458FFB1E0A0E0423310F021
:10FCD00011F089C037C034C011E50E9458FF10E010
:10FCE0001093C10059981BE015B9EFD0EED0EDD0BC
:10FCF0001FEF15B9599A10E016BD16B51034E8F388
:10FD000018E11093C10010E016BD16B51032E8F3EB
:10FD100010E01093C100599810E51CBD18E015B90A
:10FD200010E80E945FFF10E015BD10E01093C100C5
:10FD300010E014B910E01AB910E01CBD0C940000DA
:10FD40000C94E0FE142F10531BBF13E00E9452FFCF
:10FD500011E10E9452FF1AE30E9458FF20E80D9023
:10FD60001D9011E00E9452FF1EE20E9458FF329641
:10FD70002A95A9F7FE0115E00E9452FF11E10E94A9
:10FD800052FF17B716FF04C011E10E9452FFF9CFCE
:10FD900013E40E9458FF10E01093C10059981BE033
:10FDA00015B993D092D091D01FEF15B9599A10E0A0
:10FDB00016BD16B51034E8F318E11093C10046CF14
:10FDC00020E01AE30E9458FFF999FECFF2BDE1BD91
:10FDD0003D9130BDFA9AF99A1EE20E9458FF319681
:10FDE0002A9591F7D5CF16E40E9458FF473300F1CA
:10FDF00016E015B95998000000000000000019B184
:10FE0000599A16FDC5CF61D060D05FD05ED05DD06D
:10FE10005CD010E016BD16B51032E8F310E0109378
:10FE2000C100599812E51CBD17E015B920E40EC0B9
:10FE300010E016BD16B51032E8F310E01093C100C3
:10FE4000599810E51CBD18E015B920E81AE01A957C
:10FE5000F1F71FEF0E945FFF1334C1F7142F0E94C8
:10FE60005FFF1AE01A95F1F71F2F0E945FFF1AE05B
:10FE70001A95F1F71D910E945FFF14E01A95F1F7B2
:10FE80002A95C1F71AE01A95F1F72C9A10E01CBDDB
:10FE9000599A10E016BD16B51034E8F318E1109326
:10FEA000C10076CF07B700FDFDCF17BFE8950895D5
:10FEB0001093C6001091C00015FFFCCF08951EBD21
:10FEC0001DB517FFFDCF1EB5089510E016BD16B580
:08FED0001A3FE8F30895FFCF8B
:00000001FF
