:020000021000EC
:10FC000017E015B917EB14B912E01BB912E01AB9D5
:10FC100015E015BD16E015B9599858EC10E016BD61
:10FC200016B51A3FE8F3599A17E015B959985A953D
:10FC3000A9F7599A10E01093C50015E11093C4007C
:10FC400016E01093C20018E11093C10010E41EBF2B
:10FC50001FEF1DBF17E015B9552710E016BD16B5EB
:10FC60001A3FE8F3B1E0A0E012E50E9455FF10E072
:10FC700016BD16B51A3FE8F353955A3FA0F51091FB
:10FC8000C00017FFF4CF4091C6004F3F19F3413534
:10FC900009F429C011E40E9455FF1091C00017FF1C
:10FCA000FCCFF091C600E0E0EF011FEF0E9455FF8E
:10FCB00020E0433308F020E81091C00017FFFCCF8C
:10FCC0003091C600132F0E9455FF3D93A217A1F754
:10FCD00017E50E9455FFB1E0A0E0423310F011F0AB
:10FCE000A1C043C040C011E50E9455FF10E0109331
:10FCF000C100599813E015B910E016BD16B51A3FAA
:10FD0000E8F310E016BD16B51A3FE8F310E016BD93
:10FD100016B51A3FE8F31FEF15B9599A10E016BD52
:10FD200016B51034E8F318E11093C10010E016BDC9
:10FD300016B51032E8F310E01093C100599810E5A1
:10FD40001CBD10E015B910E80E945CFF10E015BD65
:10FD500010E01093C10010E014B910E01AB910E0DF
:10FD60001CBD0C9400000C94FFFE142F10531BBFFD
:10FD700013E00E944FFF11E10E944FFF1AE30E941F
:10FD800055FF20E80D901D9011E00E944FFF1EE2EC
:10FD90000E9455FF32962A95A9F7FE0115E00E94B0
:10FDA0004FFF11E10E944FFF17B716FF04C011E18A
:10FDB0000E944FFFF9CF13E40E9455FF10E010930B
:10FDC000C100599813E015B910E016BD16B51A3FD9
:10FDD000E8F310E016BD16B51A3FE8F310E016BDC3
:10FDE00016B51A3FE8F31FEF15B9599A10E016BD82
:10FDF00016B51034E8F318E11093C1002BCF20E0C2
:10FE00001AE30E9455FFF999FECFF2BDE1BD3D9185
:10FE100030BDFA9AF99A1EE20E9455FF31962A9552
:10FE200091F7C9CF16E40E9455FF10E016BD16B534
:10FE30001032E8F310E01093C100599810E51CBD92
:10FE400010E015B91AE01A95F1F71FEF0E945CFF58
:10FE50001334C1F7142F0E945CFF1AE01A95F1F7D2
:10FE600020E81F2F0E945CFF1AE01A95F1F71D9100
:10FE70000E945CFF14E01A95F1F72A95C1F71AE089
:10FE80001A95F1F72C9A10E01CBD599A10E016BD96
:10FE900016B51034E8F318E11093C1008CCF07B702
:10FEA00000FDFDCF17BFE89508951093C60010918F
:10FEB000C00015FFFCCF08951EBD1DB517FFFDCF77
:06FEC0001EB50895FFCFFE
:00000001FF
