:020000020000FC
:107E000018E01EBF1FEF1DBF16E315B912E114B92C
:107E1000299A1A990C940000299810E017B94298F1
:107E200014E017B910E41CBD409811E017B913E431
:107E30001EBDB1E0A0E0E0E0299A1DB517FFFDCF1F
:107E40004EB513E41EBD29984F3FB1F3403809F4F5
:107E5000EECF299A1DB517FFFDCFFEB511E41EBD6B
:107E60002998299A1DB517FFFDCF3EB517E51EBD10
:107E700029983D93A038A8F3B1E0A0E0453319F06C
:107E8000463311F1D4CFF695E795EF0113E00E9448
:107E9000743F11E10E94743F20E40D901D9011E0A9
:107EA0000E94743F32962A95C1F7FE0115E00E94A8
:107EB000743F11E10E94743F17B716FF04C011E12F
:107EC0000E94743FF9CFB3CFF695E795EF0120E814
:107ED000F999FECFF2BDE1BD3D9130BDFA9AF99A14
:107EE00031962A95A9F7EFCF07B700FDFDCF17BF51
:047EF000E895089574
:00000001FF
