:020000020000FC
:0200000066C0D8
:02001C0043C0DF
:0200240033C0E7
:0200700020C0AE
:04007400F69A1EC01A
:10008C005F935FB75F935091563F53955093563F94
:10009C005F915FBF5F9118954F99F09A4E99F29AC4
:1000AC004899F39A01C0F79A5F935BE25BBD5F914D
:1000BC0018955EBD5DB557FFFDCF5EB50895000088
:1000CC00089550E45EBF5FEF5DBF0E9400880E9400
:0C00DC0007B50E9402880E9404888CC1B5
:10040000BBB598B982B954B83BB80196A3B12BB823
:08041000EC91B395FC910994F5
:100600000C94000298B982B954B83BB8019623B152
:100610002BB898B982B954B83BB8019613B02BB82F
:10062000A12C622F0C940002712FA8B862B915B9E1
:1006300024B8A6145D9800F12BB85F9350E155B92A
:1006400057EB54B950E05DBD50E55CBD59985F91E2
:100650002C981F935A2D0E945F0054E05A95F1F791
:10066000562F0E945F0054E05A95F1F75F910E9467
:100670005F005CBC599A54B82BB80C940002690D09
:10068000A51C0C940002A90C5FB75E7A4178452B3B
:100690000C940002A9185FB75E7A4178406C452B34
:1006A0000C94000298B982B954B83BB8019673B162
:1006B0002BB8A72E0C94000217FB111F10F95FB77F
:1006C00051784E78452B0C940002509101091093FB
:1006D0000109152F5091020940930209452F0C94EE
:1006E0000002F60EEA1C5FB7517A4E78452B0C9447
:1006F0000002A8B862B954B83BB80000000073B15A
:100700002BB8172F0C9400026919A5080C9400024D
:10071000690D5FB75E7A4178452B0C940002691928
:100720005FB75E7A4178406C452B0C94000298B913
:1007300082B954B83BB8019673B12BB8672F0C94AB
:10074000000210FB179517F95FB751784E78452BCB
:100750000C94000298B982B954B83BB8019673B1B1
:100760002BB8AA9429F0552777FD5095870F951F30
:100770000C94000298B982B954B83BB8019623B1E1
:100780002BB898B982B954B83BB8019613B02BB8BE
:10079000C12CD22E0C940002712FC8B8D2B815B952
:1007A00024B8C6145D9800F12BB85F9350E155B999
:1007B00057EB54B950E05DBD50E55CBD59985F9171
:1007C0002C981F935C2D0E945F0054E05A95F1F71E
:1007D0005D2D0E945F0054E05A95F1F75F910E94F1
:1007E0005F005CBC599A54B82BB80C940002D90C29
:1007F000C51C0C940002C90C5FB75E7A4178452B8A
:100800000C940002C9185FB75E7A4178406C452BA2
:100810000C94000298B982B954B83BB8019673B1F0
:100820002BB8C72E0C9400024FBF111F5FB7517831
:100830004E78452B0C94000298B982B954B83BB855
:10084000019673B12BB855100C940002552777FD13
:100850005095870F951F0C940002FD0CEC1C5FB7A0
:10086000517A4E78452B0C940002C8B8D2B854B8CF
:100870003BB80000000073B12BB8172F0C94000296
:10088000D918C5080C940002D90C5FB75E7A41787C
:10089000452B0C940002D9185FB75E7A4178406C02
:1008A000452B0C94000298B982B954B83BB8019614
:1008B00073B12BB8D72E0C9400024FBF17955FB7BA
:1008C00051784E78452B0C94000298B982B954B8EF
:1008D0003BB8019673B12BB841FD0C94000255272B
:1008E00077FD5095870F951F0C94000298B982B937
:1008F00054B83BB8019623B12BB898B982B954B813
:100900003BB8019613B02BB8E12CF22E0C940002E8
:1009100098B982B954B83BB8019623B12BB898B9AD
:1009200082B954B83BB8019613B02BB818B822B9A5
:10093000F5B824B816145D9800F12BB85F9350E118
:1009400055B957EB54B950E05DBD50E55CBD5998C1
:100950005F912C98FF92512D0E945F0054E05A95B0
:10096000F1F7522F0E945F0054E05A95F1F75F9122
:100970000E945F005CBC599A54B82BB8290D151C15
:1009800018B822B9E5B824B816145D9800F12BB850
:100990005F9350E155B957EB54B950E05DBD50E558
:1009A0005CBD59985F912C98EF92512D0E945F0089
:1009B00054E05A95F1F7522F0E945F0054E05A9587
:1009C000F1F75F910E945F005CBC599A54B82BB854
:1009D0000C940002F90CE51C0C940002E90C5FB7C2
:1009E0005E7A4178452B0C940002E9185FB75E7A75
:1009F0004178406C452B0C94000298B982B954B8E8
:100A00003BB8019673B12BB8E72E0C940002BBE102
:100A1000A12F552745FD516040FD526046FD5460B1
:100A2000B50F1C9158E0B50F4C910C94000298B989
:100A300082B954B83BB8019673B12BB841FF0C94FE
:100A40000002552777FD5095870F951F0C940002E3
:100A5000FF0CEE1C5FB7517A4E78452B0C940002C8
:100A600098B982B954B83BB8019623B12BB898B95C
:100A700082B954B83BB8019613B02BB818B822B954
:100A800054B83BB800000000F3B02BB8290D151C7A
:100A900018B822B954B83BB800000000E3B02BB836
:100AA0000C940002F918E5080C940002F90C5FB7E9
:100AB0005E7A4178452B0C940002F9185FB75E7A94
:100AC0004178406C452B0C94000298B982B954B817
:100AD0003BB8019673B12BB8F72E0C940002109519
:100AE0004F78406E0C94000298B982B954B83BB864
:100AF000019673B12BB840FD0C940002552777FD89
:100B00005095870F951F0C94000298B982B954B87C
:100B10003BB8019623B12BB898B982B954B83BB809
:100B2000019613B02BB8D12DC22F0C940002712F57
:100B300098B982B954B83BB8019623B12BB898B98B
:100B400082B954B83BB8019613B02BB818B822B983
:100B500015B924B816145D9800F12BB85F9350E1D5
:100B600055B957EB54B950E05DBD50E55CBD59989F
:100B70005F912C981F93512D0E945F0054E05A956D
:100B8000F1F7522F0E945F0054E05A95F1F75F9100
:100B90000E945F005CBC599A54B82BB80C940002B8
:100BA000C90DD51D0C940002E8B8F2B854B83BB892
:100BB0000000000073B12BB8790D7FB6E8B8F2B829
:100BC00075B924B8E6145D9800F12BB85F9350E135
:100BD00055B957EB54B950E05DBD50E55CBD59982F
:100BE0005F912C987F935E2D0E945F0054E05A9590
:100BF000F1F75F2D0E945F0054E05A95F1F75F9185
:100C00000E945F005CBC599A54B82BB87FBE5FB796
:100C10005E7A4178452B0C940002E8B8F2B854B8DB
:100C20003BB80000000073B12BB879197FB6E8B863
:100C3000F2B875B924B8E6145D9800F12BB85F934B
:100C400050E155B957EB54B950E05DBD50E55CBD7E
:100C500059985F912C987F935E2D0E945F0054E01D
:100C60005A95F1F75F2D0E945F0054E05A95F1F715
:100C70005F910E945F005CBC599A54B82BB87FBE4C
:100C80005FB75E7A4178406C452B0C94000298B9AE
:100C900082B954B83BB8019673B12BB8772F7FB6A1
:100CA000E8B8F2B875B924B8E6145D9800F12BB82D
:100CB0005F9350E155B957EB54B950E05DBD50E535
:100CC0005CBD59985F912C987F935E2D0E945F00C8
:100CD00054E05A95F1F75F2D0E945F0054E05A9559
:100CE000F1F75F910E945F005CBC599A54B82BB831
:100CF0007FBE0C9400024E7841680C94000298B9B3
:100D000082B954B83BB8019673B12BB840FF0C942C
:100D10000002552777FD5095870F951F0C94000210
:100D2000FC0EED1E5FB7517A4E78452B0C940002F5
:100D300098B982B954B83BB8019623B12BB898B989
:100D400082B954B83BB8019613B02BB818B822B981
:100D500054B83BB80000000073B12BB8172F0C94A7
:100D60000002C919D5090C940002190D5FB75E7A0B
:100D70004178452B0C94000219195FB75E7A4178CF
:100D8000406C452B0C94000298B982B954B83BB81A
:100D9000019673B12BB8172F0C9400024F7840FBCB
:100DA00045F951E045270C940002AA2C0C9400024E
:100DB000A62E0C940002AC2C0C940002AD2C0C94CA
:100DC0000002AE2C0C940002AF2C0C940002E8B888
:100DD000F2B854B83BB80000000073B12BB8A72E8E
:100DE0000C940002A12E0C9400026A2D0C940002B7
:100DF000662F0C9400026C2D0C9400026D2D0C9447
:100E000000026E2D0C9400026F2D0C940002E8B8C5
:100E1000F2B854B83BB80000000073B12BB8672F8C
:100E20000C940002612F0C940002CA2C0C94000256
:100E3000C62E0C940002CC2C0C940002CD2C0C94E9
:100E40000002CE2C0C940002CF2C0C940002E8B8C7
:100E5000F2B854B83BB80000000073B12BB8C72EED
:100E60000C940002C12E0C940002DA2C0C940002A7
:100E7000D62E0C940002DC2C0C940002DD2C0C9479
:100E80000002DE2C0C940002DF2C0C940002E8B867
:100E9000F2B854B83BB80000000073B12BB8D72E9D
:100EA0000C940002D12E0C940002EA2C0C94000247
:100EB000E62E0C940002EC2C0C940002ED2C0C9409
:100EC0000002EE2C0C940002EF2C0C940002E8B807
:100ED000F2B854B83BB80000000073B12BB8E72E4D
:100EE0000C940002E12E0C940002FA2C0C940002E7
:100EF000F62E0C940002FC2C0C940002FD2C0C9499
:100F00000002FE2C0C940002FF2C0C940002E8B8A6
:100F1000F2B854B83BB80000000073B12BB8F72EFC
:100F20000C940002F12E0C9400027A2D7FB6E8B8E2
:100F3000F2B8A5B824B8E6145D9800F12BB85F9319
:100F400050E155B957EB54B950E05DBD50E55CBD7B
:100F500059985F912C98AF925E2D0E945F0054E0EB
:100F60005A95F1F75F2D0E945F0054E05A95F1F712
:100F70005F910E945F005CBC599A54B82BB87FBE49
:100F80000C940002762F7FB6E8B8F2B865B924B8A1
:100F9000E6145D9800F12BB85F9350E155B957EB1B
:100FA00054B950E05DBD50E55CBD59985F912C98F7
:100FB0006F935E2D0E945F0054E05A95F1F75F2D0C
:100FC0000E945F0054E05A95F1F75F910E945F0024
:100FD0005CBC599A54B82BB87FBE0C9400027C2D8F
:100FE0007FB6E8B8F2B8C5B824B8E6145D9800F149
:100FF0002BB85F9350E155B957EB54B950E05DBD44
:1010000050E55CBD59985F912C98CF925E2D0E945F
:101010005F0054E05A95F1F75F2D0E945F0054E0A5
:101020005A95F1F75F910E945F005CBC599A54B8E1
:101030002BB87FBE0C9400027D2D7FB6E8B8F2B8C5
:10104000D5B824B8E6145D9800F12BB85F9350E151
:1010500055B957EB54B950E05DBD50E55CBD5998AA
:101060005F912C98DF925E2D0E945F0054E05A95AC
:10107000F1F75F2D0E945F0054E05A95F1F75F9100
:101080000E945F005CBC599A54B82BB87FBE0C9488
:1010900000027E2D7FB6E8B8F2B8E5B824B8E614B1
:1010A0005D9800F12BB85F9350E155B957EB54B9F7
:1010B00050E05DBD50E55CBD59985F912C98EF9272
:1010C0005E2D0E945F0054E05A95F1F75F2D0E945B
:1010D0005F0054E05A95F1F75F910E945F005CBC9D
:1010E000599A54B82BB87FBE0C9400027F2D7FB65E
:1010F000E8B8F2B8F5B824B8E6145D9800F12BB85A
:101100005F9350E155B957EB54B950E05DBD50E5E0
:101110005CBD59985F912C98FF925E2D0E945F00F4
:1011200054E05A95F1F75F2D0E945F0054E05A9504
:10113000F1F75F910E945F005CBC599A54B82BB8DC
:101140007FBE0C940002891995090C940002712F3E
:101150007FB6E8B8F2B815B924B8E6145D9800F186
:101160002BB85F9350E155B957EB54B950E05DBDD2
:1011700050E55CBD59985F912C981F935E2D0E949D
:101180005F0054E05A95F1F75F2D0E945F0054E034
:101190005A95F1F75F910E945F005CBC599A54B870
:1011A0002BB87FBE0C9400021A2D0C940002162F4F
:1011B0000C9400021C2D0C9400021D2D0C940002B6
:1011C0001E2D0C9400021F2D0C940002E8B8F2B8FA
:1011D00054B83BB80000000073B12BB8172F0C9423
:1011E0000002112F0C9400021A0D4FB74F7A0C9485
:1011F0000002160F4FB74F7A0C9400021C0D4FB728
:101200004F7A0C9400021D0D4FB74F7A0C940002D8
:101210001E0D4FB74F7A0C9400021F0D4FB74F7A37
:101220000C940002E8B8F2B854B83BB800000000D3
:1012300073B12BB8170F4FB74F7A0C940002110FF0
:101240004FB74F7A0C9400024FBF1A1D4FB74F7A19
:101250000C9400024FBF161F4FB74F7A0C94000238
:101260004FBF1C1D4FB74F7A0C9400024FBF1D1D7E
:101270004FB74F7A0C9400024FBF1E1D4FB74F7AE5
:101280000C9400024FBF1F1D4FB74F7A0C94000201
:10129000E8B8F2B854B83BB80000000073B12BB8FE
:1012A0004FBF171F4FB74F7A0C9400024FBF111F4B
:1012B0004FB74F7A0C9400021A195FB75F7A40EC6F
:1012C000452B0C940002161B5FB75F7A40EC452B50
:1012D0000C9400021C195FB75F7A40EC452B0C940C
:1012E00000021D195FB75F7A40EC452B0C94000299
:1012F0001E195FB75F7A40EC452B0C9400021F1952
:101300005FB75F7A40EC452B0C940002E8B8F2B866
:1013100054B83BB80000000073B12BB8171B5FB77F
:101320005F7A40EC452B0C940002111B5FB75F7A8B
:1013300040EC452B0C9400024FBF18941A095FB77C
:101340005F7A40EC452B0C9400024FBF1894160BAB
:101350005FB75F7A40EC452B0C9400024FBF1894A6
:101360001C095FB75F7A40EC452B0C9400024FBF1D
:1013700018941D095FB75F7A40EC452B0C9400026E
:101380004FBF18941E095FB75F7A40EC452B0C9451
:1013900000024FBF18941F095FB75F7A40EC452BDE
:1013A0000C940002E8B8F2B854B83BB80000000052
:1013B00073B12BB84FBF1894170B5FB75F7A40EC2F
:1013C000452B0C9400024FBF1894110B5FB75F7A46
:1013D00040EC452B0C9400021A215FB7567840EA86
:1013E000452BB8E1A12F5C91452B0C9400021623EC
:1013F0005FB7567840EA452BB8E1A12F5C91452BA9
:101400000C9400021C215FB7567840EA452BB8E1E6
:10141000A12F5C91452B0C9400021D215FB75678DB
:1014200040EA452BB8E1A12F5C91452B0C940002BA
:101430001E215FB7567840EA452BB8E1A12F5C9199
:10144000452B0C9400021F215FB7567840EA452BCC
:10145000B8E1A12F5C91452B0C940002E8B8F2B8DA
:1014600054B83BB80000000073B12BB817235FB726
:10147000567840EA452BB8E1A12F5C91452B0C949E
:10148000000211235FB7567840EA452BB8E1A12F3F
:101490005C91452B0C9400021A254FB74678B8E1B1
:1014A000A12F5C91452B0C94000216274FB746786C
:1014B000B8E1A12F5C91452B0C9400021C254FB77D
:1014C0004678B8E1A12F5C91452B0C9400021D25B4
:1014D0004FB74678B8E1A12F5C91452B0C940002E0
:1014E0001E254FB74678B8E1A12F5C91452B0C948F
:1014F00000021F254FB74678B8E1A12F5C91452B1C
:101500000C940002E8B8F2B854B83BB800000000F0
:1015100073B12BB817274FB74678B8E1A12F5C916C
:10152000452B0C94000211274FB74678B8E1A12F44
:101530005C91452B0C9400021A294FB74678B8E10C
:10154000A12F5C91452B0C940002162B4FB74678C7
:10155000B8E1A12F5C91452B0C9400021C294FB7D8
:101560004678B8E1A12F5C91452B0C9400021D290F
:101570004FB74678B8E1A12F5C91452B0C9400023F
:101580001E294FB74678B8E1A12F5C91452B0C94EA
:1015900000021F294FB74678B8E1A12F5C91452B77
:1015A0000C940002E8B8F2B854B83BB80000000050
:1015B00073B12BB8172B4FB74678B8E1A12F5C91C8
:1015C000452B0C940002112B4FB74678B8E1A12FA0
:1015D0005C91452B0C9400021A155FB75F7A40ECC2
:1015E000452B0C94000216175FB75F7A40EC452B31
:1015F0000C9400021C155FB75F7A40EC452B0C94ED
:1016000000021D155FB75F7A40EC452B0C94000279
:101610001E155FB75F7A40EC452B0C9400021F1536
:101620005FB75F7A40EC452B0C940002E8B8F2B843
:1016300054B83BB80000000073B12BB817175FB760
:101640005F7A40EC452B0C94000211175FB75F7A6C
:1016500040EC452B0C94000241FD0C940002D8B9DB
:10166000C2B954B83BB80000000083B12BB8C90D13
:10167000D51DD8B9C2B954B83BB80000000093B129
:101680002BB8C90DD51D0C940002D8B9C2B954B8F5
:101690003BB80000000063B12BB8C90DD51DD8B907
:1016A000C2B954B83BB800000000A3B02BB8C90DB4
:1016B000D51D0C94000298B982B954B83BB8019674
:1016C00023B12BB898B982B954B83BB8019613B07E
:1016D0002BB841FD0C940002822F912D0C94000236
:1016E00098B982B954B83BB8019623B12BB898B9D0
:1016F00082B954B83BB8019613B02BB855100C946E
:101700000002822F912D0C94000298B982B954B82E
:101710003BB8019623B12BB898B982B954B83BB8FD
:10172000019613B02BB841FD0C940002C919D509DC
:10173000D8B9C2B995B924B8D6155D9800F12BB8BF
:101740005F9350E155B957EB54B950E05DBD50E59A
:101750005CBD59985F912C989F935D2F0E945F000C
:1017600054E05A95F1F75C2F0E945F0054E05A95BF
:10177000F1F75F910E945F005CBC599A54B82BB896
:10178000C919D509D8B9C2B985B924B8D6155D9893
:1017900000F12BB85F9350E155B957EB54B950E0C5
:1017A0005DBD50E55CBD59985F912C988F935D2F7E
:1017B0000E945F0054E05A95F1F75C2F0E945F0091
:1017C00054E05A95F1F75F910E945F005CBC599A12
:1017D00054B82BB8822F912D0C940002C919D50949
:1017E000D8B9C2B9A5B824B8D6155D9800F12BB800
:1017F0005F9350E155B957EB54B950E05DBD50E5EA
:101800005CBD59985F912C98AF925D2F0E945F004C
:1018100054E05A95F1F75C2F0E945F0054E05A950E
:10182000F1F75F910E945F005CBC599A54B82BB8E5
:10183000C919D509D8B9C2B965B924B8D6155D9802
:1018400000F12BB85F9350E155B957EB54B950E014
:101850005DBD50E55CBD59985F912C986F935D2FED
:101860000E945F0054E05A95F1F75C2F0E945F00E0
:1018700054E05A95F1F75F910E945F005CBC599A61
:1018800054B82BB80C94000298B982B954B83BB83C
:10189000019673B12BB8170F4FB74F7A0C94000213
:1018A000C919D509D8B9C2B995B924B8D6155D9862
:1018B00000F12BB85F9350E155B957EB54B950E0A4
:1018C0005DBD50E55CBD59985F912C989F935D2F4D
:1018D0000E945F0054E05A95F1F75C2F0E945F0070
:1018E00054E05A95F1F75F910E945F005CBC599AF1
:1018F00054B82BB8C919D509D8B9C2B985B924B813
:10190000D6155D9800F12BB85F9350E155B957EBB0
:1019100054B950E05DBD50E55CBD59985F912C987D
:101920008F935D2F0E945F0054E05A95F1F75C2F72
:101930000E945F0054E05A95F1F75F910E945F00AA
:101940005CBC599A54B82BB8992780E00C940002DB
:1019500041FF0C940002D8B9C2B954B83BB800009A
:10196000000083B12BB8C90DD51DD8B9C2B954B880
:101970003BB80000000093B12BB8C90DD51D0C94E5
:10198000000255100C940002D8B9C2B954B83BB843
:101990000000000083B12BB8C90DD51DD8B9C2B95C
:1019A00054B83BB80000000093B12BB8C90DD51D49
:1019B0000C94000298B982B954B83BB8019623B18F
:1019C0002BB898B982B954B83BB8019613B02BB86C
:1019D00041FF0C940002822F912D0C940002BCE078
:1019E0000C9401020C94000298B982B954B83BB827
:1019F000019623B12BB898B982B954B83BB8019677
:101A000013B02BB841FF0C940002C919D509D8B9FD
:101A1000C2B995B924B8D6155D9800F12BB85F937B
:101A200050E155B957EB54B950E05DBD50E55CBD90
:101A300059985F912C989F935D2F0E945F0054E00E
:101A40005A95F1F75C2F0E945F0054E05A95F1F728
:101A50005F910E945F005CBC599A54B82BB8C919B9
:101A6000D509D8B9C2B985B924B8D6155D9800F1A1
:101A70002BB85F9350E155B957EB54B950E05DBDB9
:101A800050E55CBD59985F912C988F935D2F0E9413
:101A90005F0054E05A95F1F75C2F0E945F0054E01C
:101AA0005A95F1F75F910E945F005CBC599A54B857
:101AB0002BB8822F912D0C94000298B982B954B89A
:101AC0003BB8019623B12BB898B982B954B83BB84A
:101AD000019613B02BB855100C940002C919D50902
:101AE000D8B9C2B995B924B8D6155D9800F12BB80C
:101AF0005F9350E155B957EB54B950E05DBD50E5E7
:101B00005CBD59985F912C989F935D2F0E945F0058
:101B100054E05A95F1F75C2F0E945F0054E05A950B
:101B2000F1F75F910E945F005CBC599A54B82BB8E2
:101B3000C919D509D8B9C2B985B924B8D6155D98DF
:101B400000F12BB85F9350E155B957EB54B950E011
:101B50005DBD50E55CBD59985F912C988F935D2FCA
:101B60000E945F0054E05A95F1F75C2F0E945F00DD
:101B700054E05A95F1F75F910E945F005CBC599A5E
:101B800054B82BB8822F912D0C94000298B982B9C9
:101B900054B83BB8019673B12BB84FBF171F4FB75E
:101BA0004F7A0C940002C919D509D8B9C2B995B9B0
:101BB00024B8D6155D9800F12BB85F9350E155B964
:101BC00057EB54B950E05DBD50E55CBD59985F914D
:101BD0002C989F935D2F0E945F0054E05A95F1F777
:101BE0005C2F0E945F0054E05A95F1F75F910E94CC
:101BF0005F005CBC599A54B82BB8C919D509D8B93B
:101C0000C2B985B924B8D6155D9800F12BB85F9399
:101C100050E155B957EB54B950E05DBD50E55CBD9E
:101C200059985F912C988F935D2F0E945F0054E02C
:101C30005A95F1F75C2F0E945F0054E05A95F1F736
:101C40005F910E945F005CBC599A54B82BB89927E9
:101C500088E00C94000240FD0C940002D8B9C2B98F
:101C600054B83BB80000000083B12BB8C90DD51D96
:101C7000D8B9C2B954B83BB80000000093B12BB832
:101C8000C90DD51D0C940002D8B9C2B954B83BB8DF
:101C900000000000D3B02BB8C90DD51DD8B9C2B90A
:101CA00054B83BB800000000C3B02BB8C90DD51D17
:101CB0000C94000298B982B954B83BB8019623B18C
:101CC0002BB898B982B954B83BB8019613B02BB869
:101CD00040FD0C940002822F912D0C94000298B9C3
:101CE00082B954B83BB8019673B12BB8572F1093F3
:101CF0000E090E9408720C94000298B982B954B877
:101D00003BB8019623B12BB898B982B954B83BB807
:101D1000019613B02BB840FD0C940002C919D509E7
:101D2000D8B9C2B995B924B8D6155D9800F12BB8C9
:101D30005F9350E155B957EB54B950E05DBD50E5A4
:101D40005CBD59985F912C989F935D2F0E945F0016
:101D500054E05A95F1F75C2F0E945F0054E05A95C9
:101D6000F1F75F910E945F005CBC599A54B82BB8A0
:101D7000C919D509D8B9C2B985B924B8D6155D989D
:101D800000F12BB85F9350E155B957EB54B950E0CF
:101D90005DBD50E55CBD59985F912C988F935D2F88
:101DA0000E945F0054E05A95F1F75C2F0E945F009B
:101DB00054E05A95F1F75F910E945F005CBC599A1C
:101DC00054B82BB8822F912D0C940002C919D50953
:101DD000D8B9C2B9C5B824B8D6155D9800F12BB8EA
:101DE0005F9350E155B957EB54B950E05DBD50E5F4
:101DF0005CBD59985F912C98CF925D2F0E945F0037
:101E000054E05A95F1F75C2F0E945F0054E05A9518
:101E1000F1F75F910E945F005CBC599A54B82BB8EF
:101E2000C919D509D8B9C2B9D5B824B8D6155D989D
:101E300000F12BB85F9350E155B957EB54B950E01E
:101E40005DBD50E55CBD59985F912C98DF925D2F88
:101E50000E945F0054E05A95F1F75C2F0E945F00EA
:101E600054E05A95F1F75F910E945F005CBC599A6B
:101E700054B82BB80C94000298B982B954B83BB846
:101E8000019673B12BB8171B5FB75F7A40EC452BF7
:101E90000C940002C919D509D8B9C2B995B924B8AA
:101EA000D6155D9800F12BB85F9350E155B957EB0B
:101EB00054B950E05DBD50E55CBD59985F912C98D8
:101EC0009F935D2F0E945F0054E05A95F1F75C2FBD
:101ED0000E945F0054E05A95F1F75F910E945F0005
:101EE0005CBC599A54B82BB8C919D509D8B9C2B92C
:101EF00085B924B8D6155D9800F12BB85F9350E1F1
:101F000055B957EB54B950E05DBD50E55CBD5998EB
:101F10005F912C988F935D2F0E945F0054E05A953B
:101F2000F1F75C2F0E945F0054E05A95F1F75F9142
:101F30000E945F005CBC599A54B82BB8992780E185
:101F40000C94000240FF0C940002D8B9C2B954B8F6
:101F50003BB80000000083B12BB8C90DD51DD8B91E
:101F6000C2B954B83BB80000000093B12BB8C90DFA
:101F7000D51D0C94000250910709E0920709E52E47
:101F800050910809F0920809F52E50910309A0928A
:101F90000309A52E5091040960930409652F5091FF
:101FA0000509C0920509C52E50910609D09206096F
:101FB000D52E0C94000298B982B954B83BB801965A
:101FC00023B12BB898B982B954B83BB8019613B075
:101FD0002BB840FF0C940002822F912D0C9400022C
:101FE00098B982B954B83BB8019673B12BB8572F42
:101FF0000E940672152F0C94000298B982B954B849
:102000003BB8019623B12BB898B982B954B83BB804
:10201000019613B02BB840FF0C940002C919D509E2
:10202000D8B9C2B995B924B8D6155D9800F12BB8C6
:102030005F9350E155B957EB54B950E05DBD50E5A1
:102040005CBD59985F912C989F935D2F0E945F0013
:1020500054E05A95F1F75C2F0E945F0054E05A95C6
:10206000F1F75F910E945F005CBC599A54B82BB89D
:10207000C919D509D8B9C2B985B924B8D6155D989A
:1020800000F12BB85F9350E155B957EB54B950E0CC
:102090005DBD50E55CBD59985F912C988F935D2F85
:1020A0000E945F0054E05A95F1F75C2F0E945F0098
:1020B00054E05A95F1F75F910E945F005CBC599A19
:1020C00054B82BB8822F912D0C940002BEE00C94D2
:1020D00001020C94000298B982B954B83BB8019639
:1020E00073B12BB84FBF1894170B5FB75F7A40ECF2
:1020F000452B0C940002C919D509D8B9C2B995B9B4
:1021000024B8D6155D9800F12BB85F9350E155B90E
:1021100057EB54B950E05DBD50E55CBD59985F91F7
:102120002C989F935D2F0E945F0054E05A95F1F721
:102130005C2F0E945F0054E05A95F1F75F910E9476
:102140005F005CBC599A54B82BB8C919D509D8B9E5
:10215000C2B985B924B8D6155D9800F12BB85F9344
:1021600050E155B957EB54B950E05DBD50E55CBD49
:1021700059985F912C988F935D2F0E945F0054E0D7
:102180005A95F1F75C2F0E945F0054E05A95F1F7E1
:102190005F910E945F005CBC599A54B82BB8992794
:1021A00088E10C94000243FD0C940002D8B9C2B936
:1021B00054B83BB80000000083B12BB8C90DD51D41
:1021C000D8B9C2B954B83BB80000000093B12BB8DD
:1021D000C90DD51D0C940002D8B9C2B954B83BB88A
:1021E00000000000F3B02BB8C90DD51DD8B9C2B995
:1021F00054B83BB800000000E3B02BB8C90DD51DA2
:102200000C94000298B982B954B83BB8019623B136
:102210002BB898B982B954B83BB8019613B02BB813
:1022200043FD0C940002822F912D0C9400021D2E70
:102230002C2F18B822B954B83BB80000000073B175
:102240002BB85F2DF72E752F18B822B975B924B8A1
:1022500016145D9800F12BB85F9350E155B957EB18
:1022600054B950E05DBD50E55CBD59985F912C9824
:102270007F93512D0E945F0054E05A95F1F7522F41
:102280000E945F0054E05A95F1F75F910E945F0051
:102290005CBC599A54B82BB8290D151C18B822B932
:1022A00054B83BB80000000073B12BB85E2DE72E88
:1022B000752F18B822B975B924B816145D9800F1B5
:1022C0002BB85F9350E155B957EB54B950E05DBD61
:1022D00050E55CBD59985F912C987F93512D0E94D9
:1022E0005F0054E05A95F1F7522F0E945F0054E0CE
:1022F0005A95F1F75F910E945F005CBC599A54B8FF
:102300002BB80C94000298B982B954B83BB8019626
:1023100023B12BB898B982B954B83BB8019613B021
:102320002BB843FD0C940002C919D509D8B9C2B91C
:1023300095B924B8D6155D9800F12BB85F9350E19C
:1023400055B957EB54B950E05DBD50E55CBD5998A7
:102350005F912C989F935D2F0E945F0054E05A95E7
:10236000F1F75C2F0E945F0054E05A95F1F75F91FE
:102370000E945F005CBC599A54B82BB8C919D509A2
:10238000D8B9C2B985B924B8D6155D9800F12BB873
:102390005F9350E155B957EB54B950E05DBD50E53E
:1023A0005CBD59985F912C988F935D2F0E945F00C0
:1023B00054E05A95F1F75C2F0E945F0054E05A9563
:1023C000F1F75F910E945F005CBC599A54B82BB83A
:1023D000822F912D0C940002C919D509D8B9C2B920
:1023E000E5B824B8D6155D9800F12BB85F9350E19D
:1023F00055B957EB54B950E05DBD50E55CBD5998F7
:102400005F912C98EF925D2F0E945F0054E05A95E7
:10241000F1F75C2F0E945F0054E05A95F1F75F914D
:102420000E945F005CBC599A54B82BB8C919D509F1
:10243000D8B9C2B9F5B824B8D6155D9800F12BB853
:102440005F9350E155B957EB54B950E05DBD50E58D
:102450005CBD59985F912C98FF925D2F0E945F00A0
:1024600054E05A95F1F75C2F0E945F0054E05A95B2
:10247000F1F75F910E945F005CBC599A54B82BB889
:102480000C94000298B982B954B83BB8019673B164
:102490002BB817235FB7567840EA452BB8E1A12F38
:1024A0005C91452B0C940002C919D509D8B9C2B961
:1024B00095B924B8D6155D9800F12BB85F9350E11B
:1024C00055B957EB54B950E05DBD50E55CBD599826
:1024D0005F912C989F935D2F0E945F0054E05A9566
:1024E000F1F75C2F0E945F0054E05A95F1F75F917D
:1024F0000E945F005CBC599A54B82BB8C919D50921
:10250000D8B9C2B985B924B8D6155D9800F12BB8F1
:102510005F9350E155B957EB54B950E05DBD50E5BC
:102520005CBD59985F912C988F935D2F0E945F003E
:1025300054E05A95F1F75C2F0E945F0054E05A95E1
:10254000F1F75F910E945F005CBC599A54B82BB8B8
:10255000992780E20C94000243FF0C940002D8B942
:10256000C2B954B83BB80000000083B12BB8C90D04
:10257000D51DD8B9C2B954B83BB80000000093B11A
:102580002BB8C90DD51D0C94000255100C940002F7
:102590008F2D9E2D0C94000298B982B954B83BB887
:1025A000019623B12BB898B982B954B83BB80196BB
:1025B00013B02BB843FF0C940002822F912D0C9482
:1025C00000025E2DEC2CC52E5F2DFD2CD52E0C941B
:1025D000000298B982B954B83BB8019623B12BB820
:1025E00098B982B954B83BB8019613B02BB843FFE1
:1025F0000C940002C919D509D8B9C2B995B924B843
:10260000D6155D9800F12BB85F9350E155B957EBA3
:1026100054B950E05DBD50E55CBD59985F912C9870
:102620009F935D2F0E945F0054E05A95F1F75C2F55
:102630000E945F0054E05A95F1F75F910E945F009D
:102640005CBC599A54B82BB8C919D509D8B9C2B9C4
:1026500085B924B8D6155D9800F12BB85F9350E189
:1026600055B957EB54B950E05DBD50E55CBD599884
:102670005F912C988F935D2F0E945F0054E05A95D4
:10268000F1F75C2F0E945F0054E05A95F1F75F91DB
:102690000E945F005CBC599A54B82BB8822F912DD0
:1026A0000C940002B0E10C9401020C94000298B961
:1026B00082B954B83BB8019673B12BB817274FB7FE
:1026C0004678B8E1A12F5C91452B0C940002C91902
:1026D000D509D8B9C2B995B924B8D6155D9800F115
:1026E0002BB85F9350E155B957EB54B950E05DBD3D
:1026F00050E55CBD59985F912C989F935D2F0E9487
:102700005F0054E05A95F1F75C2F0E945F0054E09F
:102710005A95F1F75F910E945F005CBC599A54B8DA
:102720002BB8C919D509D8B9C2B985B924B8D615F5
:102730005D9800F12BB85F9350E155B957EB54B950
:1027400050E05DBD50E55CBD59985F912C988F932A
:102750005D2F0E945F0054E05A95F1F75C2F0E94B4
:102760005F0054E05A95F1F75F910E945F005CBCF6
:10277000599A54B82BB8992788E20C94000242FD6C
:102780000C940002D8B9C2B954B83BB8000000009C
:1027900083B12BB8C90DD51DD8B9C2B954B83BB84F
:1027A0000000000093B12BB8C90DD51D0C94000298
:1027B000D8B9C2B954B83BB80000000073B12BB807
:1027C000C90DD51DD8B9C2B954B83BB80000000036
:1027D00013B12BB8C90DD51DBAE1A72F4C910C949C
:1027E000000298B982B954B83BB8019623B12BB80E
:1027F00098B982B954B83BB8019613B02BB842FDD2
:102800000C940002822F912D0C94000250E0509302
:10281000090950E050930A090C94000298B982B952
:1028200054B83BB8019623B12BB898B982B954B8C3
:102830003BB8019613B02BB842FD0C940002C919A5
:10284000D509D8B9C2B995B924B8D6155D9800F1A3
:102850002BB85F9350E155B957EB54B950E05DBDCB
:1028600050E55CBD59985F912C989F935D2F0E9415
:102870005F0054E05A95F1F75C2F0E945F0054E02E
:102880005A95F1F75F910E945F005CBC599A54B869
:102890002BB8C919D509D8B9C2B985B924B8D61584
:1028A0005D9800F12BB85F9350E155B957EB54B9DF
:1028B00050E05DBD50E55CBD59985F912C988F93B9
:1028C0005D2F0E945F0054E05A95F1F75C2F0E9443
:1028D0005F0054E05A95F1F75F910E945F005CBC85
:1028E000599A54B82BB8822F912D0C940002B9E15B
:1028F000A42F7C91C919D509D8B9C2B915B924B882
:10290000D6155D9800F12BB85F9350E155B957EBA0
:1029100054B950E05DBD50E55CBD59985F912C986D
:102920001F935D2F0E945F0054E05A95F1F75C2FD2
:102930000E945F0054E05A95F1F75F910E945F009A
:102940005CBC599A54B82BB8C919D509D8B9C2B9C1
:1029500075B924B8D6155D9800F12BB85F9350E196
:1029600055B957EB54B950E05DBD50E55CBD599881
:102970005F912C987F935D2F0E945F0054E05A95E1
:10298000F1F75C2F0E945F0054E05A95F1F75F91D8
:102990000E945F005CBC599A54B82BB80C9400029A
:1029A00098B982B954B83BB8019673B12BB8172BBC
:1029B0004FB74678B8E1A12F5C91452B0C940002EB
:1029C000C919D509D8B9C2B995B924B8D6155D9831
:1029D00000F12BB85F9350E155B957EB54B950E073
:1029E0005DBD50E55CBD59985F912C989F935D2F1C
:1029F0000E945F0054E05A95F1F75C2F0E945F003F
:102A000054E05A95F1F75F910E945F005CBC599ABF
:102A100054B82BB8C919D509D8B9C2B985B924B8E1
:102A2000D6155D9800F12BB85F9350E155B957EB7F
:102A300054B950E05DBD50E55CBD59985F912C984C
:102A40008F935D2F0E945F0054E05A95F1F75C2F41
:102A50000E945F0054E05A95F1F75F910E945F0079
:102A60005CBC599A54B82BB8992780E30C940002A7
:102A700042FF0C940002D8B9C2B954B83BB8000068
:102A8000000083B12BB8C90DD51DD8B9C2B954B84F
:102A90003BB80000000093B12BB8C90DD51D0C94B4
:102AA0000002DE2DCF2D0C94000298B982B954B8E3
:102AB0003BB8019623B12BB898B982B954B83BB84A
:102AC000019613B02BB842FF0C940002822F912D77
:102AD0000C94000251E05093090951E050930A0907
:102AE0000C94000298B982B954B83BB8019623B14E
:102AF0002BB898B982B954B83BB8019613B02BB82B
:102B000042FF0C940002C919D509D8B9C2B995B9C8
:102B100024B8D6155D9800F12BB85F9350E155B9F4
:102B200057EB54B950E05DBD50E55CBD59985F91DD
:102B30002C989F935D2F0E945F0054E05A95F1F707
:102B40005C2F0E945F0054E05A95F1F75F910E945C
:102B50005F005CBC599A54B82BB8C919D509D8B9CB
:102B6000C2B985B924B8D6155D9800F12BB85F932A
:102B700050E155B957EB54B950E05DBD50E55CBD2F
:102B800059985F912C988F935D2F0E945F0054E0BD
:102B90005A95F1F75C2F0E945F0054E05A95F1F7C7
:102BA0005F910E945F005CBC599A54B82BB8822F89
:102BB000912D0C940002B2E10C9401020C940002DD
:102BC00098B982B954B83BB8019673B12BB81717AE
:102BD0005FB75F7A40EC452B0C940002C919D50908
:102BE000D8B9C2B995B924B8D6155D9800F12BB8FB
:102BF0005F9350E155B957EB54B950E05DBD50E5D6
:102C00005CBD59985F912C989F935D2F0E945F0047
:102C100054E05A95F1F75C2F0E945F0054E05A95FA
:102C2000F1F75F910E945F005CBC599A54B82BB8D1
:102C3000C919D509D8B9C2B985B924B8D6155D98CE
:102C400000F12BB85F9350E155B957EB54B950E000
:102C50005DBD50E55CBD59985F912C988F935D2FB9
:102C60000E945F0054E05A95F1F75C2F0E945F00CC
:102C700054E05A95F1F75F910E945F005CBC599A4D
:102C800054B82BB8992788E30C940002A7FAAA0C31
:102C9000A0F8AA284FB74778B8E1AA2D5C91452B38
:102CA0000C94000267FB660F60F9662B4FB74778FC
:102CB000B8E1A62F5C91452B0C940002C7FACC0C0E
:102CC000C0F8CC284FB74778B8E1AC2D5C91452BC4
:102CD0000C940002D7FADD0CD0F8DD284FB7477806
:102CE000B8E1AD2D5C91452B0C940002E7FAEE0C97
:102CF000E0F8EE284FB74778B8E1AE2D5C91452B50
:102D00000C940002F7FAFF0CF0F8FF284FB7477851
:102D1000B8E1AF2D5C91452B0C940002E8B8F2B8F5
:102D200054B83BB80000000073B12BB877FB770FA5
:102D300070F9772B7FB6E8B8F2B875B924B8E61405
:102D40005D9800F12BB85F9350E155B957EB54B93A
:102D500050E05DBD50E55CBD59985F912C987F9324
:102D60005E2D0E945F0054E05A95F1F75F2D0E949E
:102D70005F0054E05A95F1F75F910E945F005CBCE0
:102D8000599A54B82BB87FBE4FB74778B8E1A72FF0
:102D90005C91452B0C94000217FB110F10F9112BBD
:102DA0004FB74778B8E1A12F5C91452B0C940002F6
:102DB000A0FAA694A7F8AA284FB74778B8E1AA2D99
:102DC0005C91452B0C94000260FB669567F9662BBD
:102DD0004FB74778B8E1A62F5C91452B0C940002C1
:102DE000C0FAC694C7F8CC284FB74778B8E1AC2DE5
:102DF0005C91452B0C940002D0FAD694D7F8DD28CC
:102E00004FB74778B8E1AD2D5C91452B0C9400028B
:102E1000E0FAE694E7F8EE284FB74778B8E1AE2D30
:102E20005C91452B0C940002F0FAF694F7F8FF2819
:102E30004FB74778B8E1AF2D5C91452B0C94000259
:102E4000E8B8F2B854B83BB80000000073B12BB832
:102E500070FB769577F9772B7FB6E8B8F2B875B93D
:102E600024B8E6145D9800F12BB85F9350E155B992
:102E700057EB54B950E05DBD50E55CBD59985F918A
:102E80002C987F935E2D0E945F0054E05A95F1F7D5
:102E90005F2D0E945F0054E05A95F1F75F910E9408
:102EA0005F005CBC599A54B82BB87FBE4FB74778C7
:102EB000B8E1A72F5C91452B0C94000210FB1695EE
:102EC00017F9112B4FB74778B8E1A12F5C91452B2B
:102ED0000C9400024FBFAA1C4FB74778B8E1AA2D47
:102EE0005C91452B0C9400024FBF661F4FB747788B
:102EF000B8E1A62F5C91452B0C9400024FBFCC1C6F
:102F00004FB74778B8E1AC2D5C91452B0C9400028B
:102F10004FBFDD1C4FB74778B8E1AD2D5C91452B15
:102F20000C9400024FBFEE1C4FB74778B8E1AE2DAE
:102F30005C91452B0C9400024FBFFF1C4FB74778A4
:102F4000B8E1AF2D5C91452B0C940002E8B8F2B8C3
:102F500054B83BB80000000073B12BB84FBF771FC7
:102F60007FB6E8B8F2B875B924B8E6145D9800F1F8
:102F70002BB85F9350E155B957EB54B950E05DBDA4
:102F800050E55CBD59985F912C987F935E2D0E940F
:102F90005F0054E05A95F1F75F2D0E945F0054E006
:102FA0005A95F1F75F910E945F005CBC599A54B842
:102FB0002BB87FBE4FB74778B8E1A72F5C91452B60
:102FC0000C9400024FBF111F4FB74778B8E1A12FF3
:102FD0005C91452B0C9400024FBFA7944FB74778E4
:102FE000B8E1AA2D5C91452B0C9400024FBF679568
:102FF0004FB74778B8E1A62F5C91452B0C9400029F
:103000004FBFC7944FB74778B8E1AC2D5C91452BC3
:103010000C9400024FBFD7944FB74778B8E1AD2D5D
:103020005C91452B0C9400024FBFE7944FB7477853
:10303000B8E1AE2D5C91452B0C9400024FBFF79484
:103040004FB74778B8E1AF2D5C91452B0C94000247
:10305000E8B8F2B854B83BB80000000073B12BB820
:103060004FBF77957FB6E8B8F2B875B924B8E614C3
:103070005D9800F12BB85F9350E155B957EB54B907
:1030800050E05DBD50E55CBD59985F912C987F93F1
:103090005E2D0E945F0054E05A95F1F75F2D0E946B
:1030A0005F0054E05A95F1F75F910E945F005CBCAD
:1030B000599A54B82BB87FBE4FB74778B8E1A72FBD
:1030C0005C91452B0C9400024FBF17954FB7477882
:1030D000B8E1A12F5C91452B0C940002AA0C4FB7CC
:1030E0004778B8E1AA2D5C91452B0C940002660F3D
:1030F0004FB74778B8E1A62F5C91452B0C9400029E
:10310000CC0C4FB74778B8E1AC2D5C91452B0C94B3
:103110000002DD0C4FB74778B8E1AD2D5C91452B2F
:103120000C940002EE0C4FB74778B8E1AE2D5C91DD
:10313000452B0C940002FF0C4FB74778B8E1AF2D38
:103140005C91452B0C940002E8B8F2B854B83BB837
:103150000000000073B12BB8770F7FB6E8B8F2B863
:1031600075B924B8E6145D9800F12BB85F9350E16F
:1031700055B957EB54B950E05DBD50E55CBD599869
:103180005F912C987F935E2D0E945F0054E05A95CA
:10319000F1F75F2D0E945F0054E05A95F1F75F91BF
:1031A0000E945F005CBC599A54B82BB87FBE4FB7E1
:1031B0004778B8E1A72F5C91452B0C940002110FC2
:1031C0004FB74778B8E1A12F5C91452B0C940002D2
:1031D000A7FAA694A7F8AA284FB74778B8E1AA2D6E
:1031E0005C91452B0C94000267FB669567F9662B92
:1031F0004FB74778B8E1A62F5C91452B0C9400029D
:10320000C7FAC694C7F8CC284FB74778B8E1AC2DB9
:103210005C91452B0C940002D7FAD694D7F8DD28A0
:103220004FB74778B8E1AD2D5C91452B0C94000267
:10323000E7FAE694E7F8EE284FB74778B8E1AE2D05
:103240005C91452B0C940002F7FAF694F7F8FF28EE
:103250004FB74778B8E1AF2D5C91452B0C94000235
:10326000E8B8F2B854B83BB80000000073B12BB80E
:1032700077FB769577F9772B7FB6E8B8F2B875B912
:1032800024B8E6145D9800F12BB85F9350E155B96E
:1032900057EB54B950E05DBD50E55CBD59985F9166
:1032A0002C987F935E2D0E945F0054E05A95F1F7B1
:1032B0005F2D0E945F0054E05A95F1F75F910E94E4
:1032C0005F005CBC599A54B82BB87FBE4FB74778A3
:1032D000B8E1A72F5C91452B0C94000217FB1695C3
:1032E00017F9112B4FB74778B8E1A12F5C91452B07
:1032F0000C940002AA0C6894A0F8AA284FB747784B
:10330000B8E1AA2D5C91452B0C940002660F6894DD
:1033100060F9662B4FB74778B8E1A62F5C91452B33
:103320000C940002CC0C6894C0F8CC284FB74778B6
:10333000B8E1AC2D5C91452B0C940002DD0C689437
:10334000D0F8DD284FB74778B8E1AD2D5C91452B1B
:103350000C940002EE0C6894E0F8EE284FB7477822
:10336000B8E1AE2D5C91452B0C940002FF0C6894E3
:10337000F0F8FF284FB74778B8E1AF2D5C91452BA7
:103380000C940002E8B8F2B854B83BB80000000052
:1033900073B12BB8770F689470F9772B7FB6E8B8C4
:1033A000F2B875B924B8E6145D9800F12BB85F93B4
:1033B00050E155B957EB54B950E05DBD50E55CBDE7
:1033C00059985F912C987F935E2D0E945F0054E086
:1033D0005A95F1F75F2D0E945F0054E05A95F1F77E
:1033E0005F910E945F005CBC599A54B82BB87FBEB5
:1033F0004FB74778B8E1A72F5C91452B0C9400029A
:10340000110F689410F9112B4FB74778B8E1A12F2D
:103410005C91452B0C940002A6944FB74378B8E119
:10342000AA2D5C91452B0C94000266954FB743780A
:10343000B8E1A62F5C91452B0C940002C6944FB7BF
:103440004378B8E1AC2D5C91452B0C940002D694E6
:103450004FB74378B8E1AD2D5C91452B0C94000239
:10346000E6944FB74378B8E1AE2D5C91452B0C94B0
:103470000002F6944FB74378B8E1AF2D5C91452B2D
:103480000C940002E8B8F2B854B83BB80000000051
:1034900073B12BB876957FB6E8B8F2B875B924B891
:1034A000E6145D9800F12BB85F9350E155B957EBE6
:1034B00054B950E05DBD50E55CBD59985F912C98C2
:1034C0007F935E2D0E945F0054E05A95F1F75F2DC7
:1034D0000E945F0054E05A95F1F75F910E945F00EF
:1034E0005CBC599A54B82BB87FBE4FB74378B8E14B
:1034F000A72F5C91452B0C94000216954FB743788B
:10350000B8E1A12F5C91452B0C9400025A2D51700B
:10351000B8945FB751FD38945FB75E784178406AE0
:10352000452B0C940002562F5170B8945FB751FD93
:1035300038945FB75E784178406A452B0C9400025E
:103540005C2D5170B8945FB751FD38945FB75E78C9
:103550004178406A452B0C9400025D2D5170B8945F
:103560005FB751FD38945FB75E784178406A452B6C
:103570000C9400025E2D5170B8945FB751FD3894E1
:103580005FB75E784178406A452B0C9400025F2D4E
:103590005170B8945FB751FD38945FB75E78417849
:1035A000406A452B0C940002E8B8F2B854B83BB816
:1035B0000000000073B12BB8572F5170B8945FB75B
:1035C00051FD38945FB75E784178406A452B0C9482
:1035D0000002512F5170B8945FB751FD38945FB716
:1035E0005E784178406A452B0C9400025A2D527047
:1035F000B8945FB751FD38945FB75E784178406A00
:10360000452B0C940002562F5270B8945FB751FDB1
:1036100038945FB75E784178406A452B0C9400027D
:103620005C2D5270B8945FB751FD38945FB75E78E7
:103630004178406A452B0C9400025D2D5270B8947D
:103640005FB751FD38945FB75E784178406A452B8B
:103650000C9400025E2D5270B8945FB751FD3894FF
:103660005FB75E784178406A452B0C9400025F2D6D
:103670005270B8945FB751FD38945FB75E78417867
:10368000406A452B0C940002E8B8F2B854B83BB835
:103690000000000073B12BB8572F5270B8945FB779
:1036A00051FD38945FB75E784178406A452B0C94A1
:1036B0000002512F5270B8945FB751FD38945FB734
:1036C0005E784178406A452B0C9400025A2D547064
:1036D000B8945FB751FD38945FB75E784178406A1F
:1036E000452B0C940002562F5470B8945FB751FDCF
:1036F00038945FB75E784178406A452B0C9400029D
:103700005C2D5470B8945FB751FD38945FB75E7804
:103710004178406A452B0C9400025D2D5470B8949A
:103720005FB751FD38945FB75E784178406A452BAA
:103730000C9400025E2D5470B8945FB751FD38941C
:103740005FB75E784178406A452B0C9400025F2D8C
:103750005470B8945FB751FD38945FB75E78417884
:10376000406A452B0C940002E8B8F2B854B83BB854
:103770000000000073B12BB8572F5470B8945FB796
:1037800051FD38945FB75E784178406A452B0C94C0
:103790000002512F5470B8945FB751FD38945FB751
:1037A0005E784178406A452B0C9400025A2D58707F
:1037B000B8945FB751FD38945FB75E784178406A3E
:1037C000452B0C940002562F5870B8945FB751FDEA
:1037D00038945FB75E784178406A452B0C940002BC
:1037E0005C2D5870B8945FB751FD38945FB75E7820
:1037F0004178406A452B0C9400025D2D5870B894B6
:103800005FB751FD38945FB75E784178406A452BC9
:103810000C9400025E2D5870B8945FB751FD389437
:103820005FB75E784178406A452B0C9400025F2DAB
:103830005870B8945FB751FD38945FB75E7841789F
:10384000406A452B0C940002E8B8F2B854B83BB873
:103850000000000073B12BB8572F5870B8945FB7B1
:1038600051FD38945FB75E784178406A452B0C94DF
:103870000002512F5870B8945FB751FD38945FB76C
:103880005E784178406A452B0C9400025A2D5071A5
:10389000B8945FB751FD38945FB75E784178406A5D
:1038A000452B0C940002562F5071B8945FB751FD10
:1038B00038945FB75E784178406A452B0C940002DB
:1038C0005C2D5071B8945FB751FD38945FB75E7846
:1038D0004178406A452B0C9400025D2D5071B894DC
:1038E0005FB751FD38945FB75E784178406A452BE9
:1038F0000C9400025E2D5071B8945FB751FD38945E
:103900005FB75E784178406A452B0C9400025F2DCA
:103910005071B8945FB751FD38945FB75E784178C5
:10392000406A452B0C940002E8B8F2B854B83BB892
:103930000000000073B12BB8572F5071B8945FB7D7
:1039400051FD38945FB75E784178406A452B0C94FE
:103950000002512F5071B8945FB751FD38945FB792
:103960005E784178406A452B0C9400025A2D5072C3
:10397000B8945FB751FD38945FB75E784178406A7C
:10398000452B0C940002562F5072B8945FB751FD2E
:1039900038945FB75E784178406A452B0C940002FA
:1039A0005C2D5072B8945FB751FD38945FB75E7864
:1039B0004178406A452B0C9400025D2D5072B894FA
:1039C0005FB751FD38945FB75E784178406A452B08
:1039D0000C9400025E2D5072B8945FB751FD38947C
:1039E0005FB75E784178406A452B0C9400025F2DEA
:1039F0005072B8945FB751FD38945FB75E784178E4
:103A0000406A452B0C940002E8B8F2B854B83BB8B1
:103A10000000000073B12BB8572F5072B8945FB7F5
:103A200051FD38945FB75E784178406A452B0C941D
:103A30000002512F5072B8945FB751FD38945FB7B0
:103A40005E784178406A452B0C9400025A2D5074E0
:103A5000B8945FB751FD38945FB75E784178406A9B
:103A6000452B0C940002562F5074B8945FB751FD4B
:103A700038945FB75E784178406A452B0C94000219
:103A80005C2D5074B8945FB751FD38945FB75E7881
:103A90004178406A452B0C9400025D2D5074B89417
:103AA0005FB751FD38945FB75E784178406A452B27
:103AB0000C9400025E2D5074B8945FB751FD389499
:103AC0005FB75E784178406A452B0C9400025F2D09
:103AD0005074B8945FB751FD38945FB75E78417801
:103AE000406A452B0C940002E8B8F2B854B83BB8D1
:103AF0000000000073B12BB8572F5074B8945FB713
:103B000051FD38945FB75E784178406A452B0C943C
:103B10000002512F5074B8945FB751FD38945FB7CD
:103B20005E784178406A452B0C9400025A2D5078FB
:103B3000B8945FB751FD38945FB75E784178406ABA
:103B4000452B0C940002562F5078B8945FB751FD66
:103B500038945FB75E784178406A452B0C94000238
:103B60005C2D5078B8945FB751FD38945FB75E789C
:103B70004178406A452B0C9400025D2D5078B89432
:103B80005FB751FD38945FB75E784178406A452B46
:103B90000C9400025E2D5078B8945FB751FD3894B4
:103BA0005FB75E784178406A452B0C9400025F2D28
:103BB0005078B8945FB751FD38945FB75E7841781C
:103BC000406A452B0C940002E8B8F2B854B83BB8F0
:103BD0000000000073B12BB8572F5078B8945FB72E
:103BE00051FD38945FB75E784178406A452B0C945C
:103BF0000002512F5078B8945FB751FD38945FB7E9
:103C00005E784178406A452B0C9400025EEFA52255
:103C10000C9400025EEF65230C9400025EEFC52257
:103C20000C9400025EEFD5220C9400025EEFE522B8
:103C30000C9400025EEFF5220C940002E8B8F2B892
:103C400054B83BB80000000073B12BB8572F5E7F0B
:103C5000752FE8B8F2B875B924B8E6145D9800F18C
:103C60002BB85F9350E155B957EB54B950E05DBDA7
:103C700050E55CBD59985F912C987F935E2D0E9412
:103C80005F0054E05A95F1F75F2D0E945F0054E009
:103C90005A95F1F75F910E945F005CBC599A54B845
:103CA0002BB80C9400025EEF15230C9400025DEF1C
:103CB000A5220C9400025DEF65230C9400025DEFD9
:103CC000C5220C9400025DEFD5220C9400025DEF3A
:103CD000E5220C9400025DEFF5220C940002E8B896
:103CE000F2B854B83BB80000000073B12BB8572F9E
:103CF0005D7F752FE8B8F2B875B924B8E6145D9801
:103D000000F12BB85F9350E155B957EB54B950E02F
:103D10005DBD50E55CBD59985F912C987F935E2DF9
:103D20000E945F0054E05A95F1F75F2D0E945F00FA
:103D300054E05A95F1F75F910E945F005CBC599A7C
:103D400054B82BB80C9400025DEF15230C940002BC
:103D50005BEFA5220C9400025BEF65230C9400023C
:103D60005BEFC5220C9400025BEFD5220C9400029D
:103D70005BEFE5220C9400025BEFF5220C9400024D
:103D8000E8B8F2B854B83BB80000000073B12BB8E3
:103D9000572F5B7F752FE8B8F2B875B924B8E614D1
:103DA0005D9800F12BB85F9350E155B957EB54B9CA
:103DB00050E05DBD50E55CBD59985F912C987F93B4
:103DC0005E2D0E945F0054E05A95F1F75F2D0E942E
:103DD0005F0054E05A95F1F75F910E945F005CBC70
:103DE000599A54B82BB80C9400025BEF15230C942D
:103DF000000257EFA5220C94000257EF65230C94A4
:103E0000000257EFC5220C94000257EFD5220C9404
:103E1000000257EFE5220C94000257EFF5220C94B4
:103E20000002E8B8F2B854B83BB80000000073B123
:103E30002BB8572F577F752FE8B8F2B875B924B84B
:103E4000E6145D9800F12BB85F9350E155B957EB3C
:103E500054B950E05DBD50E55CBD59985F912C9818
:103E60007F935E2D0E945F0054E05A95F1F75F2D1D
:103E70000E945F0054E05A95F1F75F910E945F0045
:103E80005CBC599A54B82BB80C94000257EF152318
:103E90000C9400025FEEA5220C9400025FEE6523F5
:103EA0000C9400025FEEC5220C9400025FEED52256
:103EB0000C9400025FEEE5220C9400025FEEF52206
:103EC0000C940002E8B8F2B854B83BB80000000007
:103ED00073B12BB8572F5F7E752FE8B8F2B875B95C
:103EE00024B8E6145D9800F12BB85F9350E155B902
:103EF00057EB54B950E05DBD50E55CBD59985F91FA
:103F00002C987F935E2D0E945F0054E05A95F1F744
:103F10005F2D0E945F0054E05A95F1F75F910E9477
:103F20005F005CBC599A54B82BB80C9400025FEE49
:103F300015230C9400025FEDA5220C9400025FEDA6
:103F400065230C9400025FEDC5220C9400025FED26
:103F5000D5220C9400025FEDE5220C9400025FED87
:103F6000F5220C940002E8B8F2B854B83BB800004F
:103F7000000073B12BB8572F5F7D752FE8B8F2B8EA
:103F800075B924B8E6145D9800F12BB85F9350E141
:103F900055B957EB54B950E05DBD50E55CBD59983B
:103FA0005F912C987F935E2D0E945F0054E05A959C
:103FB000F1F75F2D0E945F0054E05A95F1F75F9191
:103FC0000E945F005CBC599A54B82BB80C94000254
:103FD0005FED15230C9400025FEBA5220C94000208
:103FE0005FEB65230C9400025FEBC5220C9400028A
:103FF0005FEBD5220C9400025FEBE5220C940002EB
:104000005FEBF5220C940002E8B8F2B854B83BB864
:104010000000000073B12BB8572F5F7B752FE8B8F5
:10402000F2B875B924B8E6145D9800F12BB85F9327
:1040300050E155B957EB54B950E05DBD50E55CBD5A
:1040400059985F912C987F935E2D0E945F0054E0F9
:104050005A95F1F75F2D0E945F0054E05A95F1F7F1
:104060005F910E945F005CBC599A54B82BB80C94C5
:1040700000025FEB15230C9400025FE7A5220C946D
:1040800000025FE765230C9400025FE7C5220C94F1
:1040900000025FE7D5220C9400025FE7E5220C9452
:1040A00000025FE7F5220C940002E8B8F2B854B8B9
:1040B0003BB80000000073B12BB8572F5F77752F06
:1040C000E8B8F2B875B924B8E6145D9800F12BB8D9
:1040D0005F9350E155B957EB54B950E05DBD50E5E1
:1040E0005CBD59985F912C987F935E2D0E945F0074
:1040F00054E05A95F1F75F2D0E945F0054E05A9505
:10410000F1F75F910E945F005CBC599A54B82BB8DC
:104110000C9400025FE715230C94000251E0A52ADD
:104120000C94000251E0652B0C94000251E0C52A6A
:104130000C94000251E0D52A0C94000251E0E52ACB
:104140000C94000251E0F52A0C940002E8B8F2B891
:1041500054B83BB80000000073B12BB8572F516022
:10416000752FE8B8F2B875B924B8E6145D9800F177
:104170002BB85F9350E155B957EB54B950E05DBD92
:1041800050E55CBD59985F912C987F935E2D0E94FD
:104190005F0054E05A95F1F75F2D0E945F0054E0F4
:1041A0005A95F1F75F910E945F005CBC599A54B830
:1041B0002BB80C94000251E0152B0C94000252E035
:1041C000A52A0C94000252E0652B0C94000252E0E8
:1041D000C52A0C94000252E0D52A0C94000252E049
:1041E000E52A0C94000252E0F52A0C940002E8B88B
:1041F000F2B854B83BB80000000073B12BB8572F89
:104200005260752FE8B8F2B875B924B8E6145D9815
:1042100000F12BB85F9350E155B957EB54B950E01A
:104220005DBD50E55CBD59985F912C987F935E2DE4
:104230000E945F0054E05A95F1F75F2D0E945F00E5
:1042400054E05A95F1F75F910E945F005CBC599A67
:1042500054B82BB80C94000252E0152B0C940002B9
:1042600054E0A52A0C94000254E0652B0C94000243
:1042700054E0C52A0C94000254E0D52A0C940002A4
:1042800054E0E52A0C94000254E0F52A0C94000254
:10429000E8B8F2B854B83BB80000000073B12BB8CE
:1042A000572F5460752FE8B8F2B875B924B8E614E2
:1042B0005D9800F12BB85F9350E155B957EB54B9B5
:1042C00050E05DBD50E55CBD59985F912C987F939F
:1042D0005E2D0E945F0054E05A95F1F75F2D0E9419
:1042E0005F0054E05A95F1F75F910E945F005CBC5B
:1042F000599A54B82BB80C94000254E0152B0C9426
:10430000000258E0A52A0C94000258E0652B0C949A
:10431000000258E0C52A0C94000258E0D52A0C94FB
:10432000000258E0E52A0C94000258E0F52A0C94AB
:104330000002E8B8F2B854B83BB80000000073B10E
:104340002BB8572F5860752FE8B8F2B875B924B854
:10435000E6145D9800F12BB85F9350E155B957EB27
:1043600054B950E05DBD50E55CBD59985F912C9803
:104370007F935E2D0E945F0054E05A95F1F75F2D08
:104380000E945F0054E05A95F1F75F910E945F0030
:104390005CBC599A54B82BB80C94000258E0152B09
:1043A0000C94000250E1A52A0C94000250E1652B08
:1043B0000C94000250E1C52A0C94000250E1D52A69
:1043C0000C94000250E1E52A0C94000250E1F52A19
:1043D0000C940002E8B8F2B854B83BB800000000F2
:1043E00073B12BB8572F5061752FE8B8F2B875B973
:1043F00024B8E6145D9800F12BB85F9350E155B9ED
:1044000057EB54B950E05DBD50E55CBD59985F91E4
:104410002C987F935E2D0E945F0054E05A95F1F72F
:104420005F2D0E945F0054E05A95F1F75F910E9462
:104430005F005CBC599A54B82BB80C94000250E150
:10444000152B0C94000250E2A52A0C94000250E2B5
:10445000652B0C94000250E2C52A0C94000250E235
:10446000D52A0C94000250E2E52A0C94000250E296
:10447000F52A0C940002E8B8F2B854B83BB8000032
:10448000000073B12BB8572F5062752FE8B8F2B8FF
:1044900075B924B8E6145D9800F12BB85F9350E12C
:1044A00055B957EB54B950E05DBD50E55CBD599826
:1044B0005F912C987F935E2D0E945F0054E05A9587
:1044C000F1F75F2D0E945F0054E05A95F1F75F917C
:1044D0000E945F005CBC599A54B82BB80C9400023F
:1044E00050E2152B0C94000250E4A52A0C94000213
:1044F00050E4652B0C94000250E4C52A0C94000291
:1045000050E4D52A0C94000250E4E52A0C940002F1
:1045100050E4F52A0C940002E8B8F2B854B83BB85D
:104520000000000073B12BB8572F5064752FE8B806
:10453000F2B875B924B8E6145D9800F12BB85F9312
:1045400050E155B957EB54B950E05DBD50E55CBD45
:1045500059985F912C987F935E2D0E945F0054E0E4
:104560005A95F1F75F2D0E945F0054E05A95F1F7DC
:104570005F910E945F005CBC599A54B82BB80C94B0
:10458000000250E4152B0C94000250E8A52A0C946C
:10459000000250E8652B0C94000250E8C52A0C94E8
:1045A000000250E8D52A0C94000250E8E52A0C9449
:1045B000000250E8F52A0C940002E8B8F2B854B8AA
:1045C0003BB80000000073B12BB8572F5068752F0F
:1045D000E8B8F2B875B924B8E6145D9800F12BB8C4
:1045E0005F9350E155B957EB54B950E05DBD50E5CC
:1045F0005CBD59985F912C987F935E2D0E945F005F
:1046000054E05A95F1F75F2D0E945F0054E05A95EF
:10461000F1F75F910E945F005CBC599A54B82BB8C7
:104620000C94000250E8152B0C9400020C9400022C
:1046300098B982B954B83BB8019623B12BB898B950
:1046400082B954B83BB8019613B02BB8A12C622F95
:104650000C940002712FA8B862B915B924B8A61439
:104660005D9800F12BB85F9350E155B957EB54B901
:1046700050E05DBD50E55CBD59985F912C981F934B
:104680005A2D0E945F0054E05A95F1F7562F0E9470
:104690005F0054E05A95F1F75F910E945F005CBCA7
:1046A000599A54B82BB80C940002690DA51C0C94AF
:1046B0000002A90C5FB75E7A4178452B0C9400028A
:1046C000A9185FB75E7A4178406C452B0C940002C4
:1046D00098B982B954B83BB8019673B12BB8A72EDC
:1046E0000C94000217FB111F10F95FB751784E7838
:1046F000452B0C9400025091010910930109152FCC
:104700005091020940930209452F0C940002060FB4
:104710008A1C5FB7517A4E78452B0C940002A8B8DA
:1047200062B954B83BB80000000073B12BB8172F22
:104730000C9400026919A5080C940002690D5FB77A
:104740005E7A4178452B0C94000269195FB75E7A56
:104750004178406C452B0C94000298B982B954B84A
:104760003BB8019673B12BB8672F0C94000210FB75
:10477000179517F95FB751784E78452B0C940002C6
:1047800098B982B954B83BB8019673B12BB8AA94C2
:1047900029F0552777FD5095870F951F0C9400023F
:1047A00098B982B954B83BB8019623B12BB898B9DF
:1047B00082B954B83BB8019613B02BB8C12CD22E95
:1047C0000C940002712FC8B8D2B815B924B8C61419
:1047D0005D9800F12BB85F9350E155B957EB54B990
:1047E00050E05DBD50E55CBD59985F912C981F93DA
:1047F0005C2D0E945F0054E05A95F1F75D2D0E94F8
:104800005F0054E05A95F1F75F910E945F005CBC35
:10481000599A54B82BB80C940002D90CC51C0C94AE
:104820000002C90C5FB75E7A4178452B0C940002F8
:10483000C9185FB75E7A4178406C452B0C94000232
:1048400098B982B954B83BB8019673B12BB8C72E4A
:104850000C9400024FBF111F5FB751784E78452B63
:104860000C94000298B982B954B83BB8019673B160
:104870002BB855100C940002552777FD5095870FE3
:10488000951F0C9400020D0D8C1C5FB7517A4E7869
:10489000452B0C940002C8B8D2B854B83BB80000FD
:1048A000000073B12BB8172F0C940002D918C5085B
:1048B0000C940002D90C5FB75E7A4178452B0C94BA
:1048C0000002D9185FB75E7A4178406C452B0C9492
:1048D000000298B982B954B83BB8019673B12BB8AD
:1048E000D72E0C9400024FBF17955FB751784E78C2
:1048F000452B0C94000298B982B954B83BB8019684
:1049000073B12BB841FD0C940002552777FD5095EB
:10491000870F951F0C94000298B982B954B83BB820
:10492000019623B12BB898B982B954B83BB8019617
:1049300013B02BB8812C022F0C94000298B982B9C5
:1049400054B83BB8019623B12BB898B982B954B882
:104950003BB8019613B02BB818B822B905B924B8E2
:1049600016145D9800F12BB85F9350E155B957EBE1
:1049700054B950E05DBD50E55CBD59985F912C98ED
:104980000F93512D0E945F0054E05A95F1F7522F7A
:104990000E945F0054E05A95F1F75F910E945F001A
:1049A0005CBC599A54B82BB8290D151C18B822B9FB
:1049B00085B824B816145D9800F12BB85F9350E1C8
:1049C00055B957EB54B950E05DBD50E55CBD599801
:1049D0005F912C988F92512D0E945F0054E05A9560
:1049E000F1F7522F0E945F0054E05A95F1F75F9162
:1049F0000E945F005CBC599A54B82BB80C9400021A
:104A0000090D851C0C940002890C5FB75E7A417811
:104A1000452B0C94000289185FB75E7A4178406C90
:104A2000452B0C94000298B982B954B83BB8019652
:104A300073B12BB8872E0C940002BBE1A12F552730
:104A400045FD516040FD526046FD5460B50F1C911C
:104A500058E0B50F4C910C94000298B982B954B843
:104A60003BB8019673B12BB841FF0C940002552757
:104A700077FD5095870F951F0C940002000F881C3E
:104A80005FB7517A4E78452B0C94000298B982B9E1
:104A900054B83BB8019623B12BB898B982B954B831
:104AA0003BB8019613B02BB818B822B954B83BB82C
:104AB0000000000003B12BB8290D151C18B822B94D
:104AC00054B83BB80000000083B02BB80C9400022F
:104AD000091985080C940002090D5FB75E7A4178C8
:104AE000452B0C94000209195FB75E7A4178406C3F
:104AF000452B0C94000298B982B954B83BB8019682
:104B000073B12BB8072F0C94000210954F78406EAC
:104B10000C94000298B982B954B83BB8019673B1AD
:104B20002BB840FD0C940002552777FD5095870F58
:104B3000951F0C94000298B982B954B83BB80196FD
:104B400023B12BB898B982B954B83BB8019613B0C9
:104B50002BB8D12DC22F0C940002712F98B982B9B5
:104B600054B83BB8019623B12BB898B982B954B860
:104B70003BB8019613B02BB818B822B915B924B8B0
:104B800016145D9800F12BB85F9350E155B957EBBF
:104B900054B950E05DBD50E55CBD59985F912C98CB
:104BA0001F93512D0E945F0054E05A95F1F7522F48
:104BB0000E945F0054E05A95F1F75F910E945F00F8
:104BC0005CBC599A54B82BB80C940002C90DD51D81
:104BD0000C94000298B982B954B83BB8019673B1ED
:104BE0002BB8202F182C552777FD5095270F151E11
:104BF00018B822B954B83BB80000000073B12BB804
:104C0000790D7FB618B822B975B924B816145D9815
:104C100000F12BB85F9350E155B957EB54B950E010
:104C20005DBD50E55CBD59985F912C987F93512DE7
:104C30000E945F0054E05A95F1F7522F0E945F00E6
:104C400054E05A95F1F75F910E945F005CBC599A5D
:104C500054B82BB87FBE5FB75E7A4178452B0C9471
:104C6000000298B982B954B83BB8019673B12BB819
:104C7000202F182C552777FD5095270F151E18B893
:104C800022B954B83BB80000000073B12BB87919B1
:104C90007FB618B822B975B924B816145D9800F11A
:104CA0002BB85F9350E155B957EB54B950E05DBD57
:104CB00050E55CBD59985F912C987F93512D0E94CF
:104CC0005F0054E05A95F1F7522F0E945F0054E0C4
:104CD0005A95F1F75F910E945F005CBC599A54B8F5
:104CE0002BB87FBE5FB75E7A4178406C452B0C9441
:104CF000000298B982B954B83BB8019673B12BB889
:104D0000202F182C552777FD5095270F151E98B981
:104D100082B954B83BB8019673B12BB8772F7FB6E0
:104D200018B822B975B924B816145D9800F12BB8DB
:104D30005F9350E155B957EB54B950E05DBD50E574
:104D40005CBD59985F912C987F93512D0E945F0014
:104D500054E05A95F1F7522F0E945F0054E05A95A3
:104D6000F1F75F910E945F005CBC599A54B82BB870
:104D70007FBE0C9400024E7841680C94000298B9F2
:104D800082B954B83BB8019673B12BB840FF0C946C
:104D90000002552777FD5095870F951F0C94000250
:104DA0000C0F8D1E5FB7517A4E78452B0C94000284
:104DB00098B982B954B83BB8019623B12BB898B9C9
:104DC00082B954B83BB8019613B02BB818B822B9C1
:104DD00054B83BB80000000073B12BB8172F0C94E7
:104DE0000002C919D5090C940002190D5FB75E7A4B
:104DF0004178452B0C94000219195FB75E7A41780F
:104E0000406C452B0C94000298B982B954B83BB859
:104E1000019673B12BB8172F0C9400024F7840FB0A
:104E200045F951E045270C940002AA2C0C9400028D
:104E3000A62E0C940002AC2C0C940002AD2C0C9409
:104E40000002A82C0C940002A02E0C94000298B929
:104E500082B954B83BB8019673B12BB8202F182CE7
:104E6000552777FD5095270F151E18B822B954B84D
:104E70003BB80000000073B12BB8A72E0C940002C1
:104E8000A12E0C9400026A2D0C940002662F0C9443
:104E900000026C2D0C9400026D2D0C940002682D04
:104EA0000C940002602F0C94000298B982B954B897
:104EB0003BB8019673B12BB8202F182C552777FDDE
:104EC0005095270F151E18B822B954B83BB80000EA
:104ED000000073B12BB8672F0C940002612F0C9463
:104EE0000002CA2C0C940002C62E0C940002CC2C9A
:104EF0000C940002CD2C0C940002C82C0C940002DF
:104F0000C02E0C94000298B982B954B83BB80196EF
:104F100073B12BB8202F182C552777FD5095270FEC
:104F2000151E18B822B954B83BB80000000073B180
:104F30002BB8C72E0C940002C12E0C940002DA2C60
:104F40000C940002D62E0C940002DC2C0C9400026F
:104F5000DD2C0C940002D82C0C940002D02E0C9462
:104F6000000298B982B954B83BB8019673B12BB816
:104F7000202F182C552777FD5095270F151E18B890
:104F800022B954B83BB80000000073B12BB8D72E3B
:104F90000C940002D12E0C9400028A2C0C94000276
:104FA000862E0C9400028C2C0C9400028D2C0C94F8
:104FB0000002882C0C940002802E0C94000298B9F8
:104FC00082B954B83BB8019673B12BB8202F182C76
:104FD000552777FD5095270F151E18B822B954B8DC
:104FE0003BB80000000073B12BB8E72E0C94000210
:104FF000812E0C9400020A2D0C940002062F0C94B2
:1050000000020C2D0C9400020D2D0C940002082DB2
:105010000C940002002F0C94000298B982B954B885
:105020003BB8019673B12BB8202F182C552777FD6C
:105030005095270F151E18B822B954B83BB8000078
:10504000000073B12BB8F72E0C940002012F0C94C2
:10505000000298B982B954B83BB8019673B12BB825
:10506000202F182C552777FD5095270F151E7A2DC8
:105070007FB618B822B975B924B816145D9800F136
:105080002BB85F9350E155B957EB54B950E05DBD73
:1050900050E55CBD59985F912C987F93512D0E94EB
:1050A0005F0054E05A95F1F7522F0E945F0054E0E0
:1050B0005A95F1F75F910E945F005CBC599A54B811
:1050C0002BB87FBE0C94000298B982B954B83BB893
:1050D000019673B12BB8202F182C552777FD5095CA
:1050E000270F151E762F7FB618B822B975B924B8C8
:1050F00016145D9800F12BB85F9350E155B957EB4A
:1051000054B950E05DBD50E55CBD59985F912C9855
:105110007F93512D0E945F0054E05A95F1F7522F72
:105120000E945F0054E05A95F1F75F910E945F0082
:105130005CBC599A54B82BB87FBE0C94000298B945
:1051400082B954B83BB8019673B12BB8202F182CF4
:10515000552777FD5095270F151E7C2D7FB618B863
:1051600022B975B924B816145D9800F12BB85F9375
:1051700050E155B957EB54B950E05DBD50E55CBD09
:1051800059985F912C987F93512D0E945F0054E0B5
:105190005A95F1F7522F0E945F0054E05A95F1F7AB
:1051A0005F910E945F005CBC599A54B82BB87FBED7
:1051B0000C94000298B982B954B83BB8019673B107
:1051C0002BB8202F182C552777FD5095270F151E2B
:1051D0007D2D7FB618B822B975B924B816145D981C
:1051E00000F12BB85F9350E155B957EB54B950E03B
:1051F0005DBD50E55CBD59985F912C987F93512D12
:105200000E945F0054E05A95F1F7522F0E945F0010
:1052100054E05A95F1F75F910E945F005CBC599A87
:1052200054B82BB87FBE0C94000298B982B954B818
:105230003BB8019673B12BB8202F182C552777FD5A
:105240005095270F151E7E2D7FB618B822B975B957
:1052500024B816145D9800F12BB85F9350E155B94E
:1052600057EB54B950E05DBD50E55CBD59985F9176
:105270002C987F93512D0E945F0054E05A95F1F7CE
:10528000522F0E945F0054E05A95F1F75F910E94FF
:105290005F005CBC599A54B82BB87FBE0C940002D6
:1052A00098B982B954B83BB8019673B12BB8202F86
:1052B000182C552777FD5095270F151E7F2D7FB68B
:1052C00018B822B975B924B816145D9800F12BB836
:1052D0005F9350E155B957EB54B950E05DBD50E5CF
:1052E0005CBD59985F912C987F93512D0E945F006F
:1052F00054E05A95F1F7522F0E945F0054E05A95FE
:10530000F1F75F910E945F005CBC599A54B82BB8CA
:105310007FBE0C940002891995090C94000298B97B
:1053200082B954B83BB8019673B12BB8202F182C12
:10533000552777FD5095270F151E712F7FB618B88A
:1053400022B975B924B816145D9800F12BB85F9393
:1053500050E155B957EB54B950E05DBD50E55CBD27
:1053600059985F912C987F93512D0E945F0054E0D3
:105370005A95F1F7522F0E945F0054E05A95F1F7C9
:105380005F910E945F005CBC599A54B82BB87FBEF5
:105390000C9400021A2D0C940002162F0C9400029B
:1053A0001C2D0C9400021D2D0C940002182D0C9441
:1053B0000002102F0C94000298B982B954B83BB87F
:1053C000019673B12BB8202F182C552777FD5095D7
:1053D000270F151E18B822B954B83BB800000000BA
:1053E00073B12BB8172F0C940002112F0C940002EC
:1053F0001A0D4FB74F7A0C940002160F4FB74F7A21
:105400000C9400021C0D4FB74F7A0C9400021D0D36
:105410004FB74F7A0C940002180D4FB74F7A0C9487
:105420000002100F4FB74F7A0C94000298B982B95E
:1054300054B83BB8019673B12BB8202F182C5527C0
:1054400077FD5095270F151E18B822B954B83BB8F0
:105450000000000073B12BB8170F4FB74F7A0C94B0
:105460000002110F4FB74F7A0C9400024FBF1A1D64
:105470004FB74F7A0C9400024FBF161F4FB74F7AA9
:105480000C9400024FBF1C1D4FB74F7A0C940002C2
:105490004FBF1D1D4FB74F7A0C9400024FBF181D10
:1054A0004FB74F7A0C9400024FBF101F4FB74F7A7F
:1054B0000C94000298B982B954B83BB8019673B104
:1054C0002BB8202F182C552777FD5095270F151E28
:1054D00018B822B954B83BB80000000073B12BB81B
:1054E0004FBF171F4FB74F7A0C9400024FBF111FC9
:1054F0004FB74F7A0C9400021A195FB75F7A40ECED
:10550000452B0C940002161B5FB75F7A40EC452BCD
:105510000C9400021C195FB75F7A40EC452B0C9489
:1055200000021D195FB75F7A40EC452B0C94000216
:1055300018195FB75F7A40EC452B0C940002101BE2
:105540005FB75F7A40EC452B0C94000298B982B9A2
:1055500054B83BB8019673B12BB8202F182C55279F
:1055600077FD5095270F151E18B822B954B83BB8CF
:105570000000000073B12BB8171B5FB75F7A40ECD7
:10558000452B0C940002111B5FB75F7A40EC452B52
:105590000C9400024FBF18941A095FB75F7A40EC71
:1055A000452B0C9400024FBF1894160B5FB75F7A1F
:1055B00040EC452B0C9400024FBF18941C095FB7B8
:1055C0005F7A40EC452B0C9400024FBF18941D09E4
:1055D0005FB75F7A40EC452B0C9400024FBF1894E4
:1055E00018095FB75F7A40EC452B0C9400024FBF5F
:1055F0001894100B5FB75F7A40EC452B0C940002B7
:1056000098B982B954B83BB8019673B12BB8202F22
:10561000182C552777FD5095270F151E18B822B95D
:1056200054B83BB80000000073B12BB84FBF1894BA
:10563000170B5FB75F7A40EC452B0C9400024FBF0D
:105640001894110B5FB75F7A40EC452B0C94000265
:105650001A215FB7567840EA452BB8E1A12F5C913B
:10566000452B0C94000216235FB7567840EA452B71
:10567000B8E1A12F5C91452B0C9400021C215FB76F
:10568000567840EA452BB8E1A12F5C91452B0C944C
:1056900000021D215FB7567840EA452BB8E1A12FE3
:1056A0005C91452B0C94000218215FB7567840EAB4
:1056B000452BB8E1A12F5C91452B0C9400021023DF
:1056C0005FB7567840EA452BB8E1A12F5C91452B96
:1056D0000C94000298B982B954B83BB8019673B1E2
:1056E0002BB8202F182C552777FD5095270F151E06
:1056F00018B822B954B83BB80000000073B12BB8F9
:1057000017235FB7567840EA452BB8E1A12F5C918B
:10571000452B0C94000211235FB7567840EA452BC5
:10572000B8E1A12F5C91452B0C9400021A254FB7CC
:105730004678B8E1A12F5C91452B0C940002162706
:105740004FB74678B8E1A12F5C91452B0C9400022D
:105750001C254FB74678B8E1A12F5C91452B0C94DE
:1057600000021D254FB74678B8E1A12F5C91452B6B
:105770000C94000218254FB74678B8E1A12F5C9130
:10578000452B0C94000210274FB74678B8E1A12FA3
:105790005C91452B0C94000298B982B954B83BB87F
:1057A000019673B12BB8202F182C552777FD5095F3
:1057B000270F151E18B822B954B83BB800000000D6
:1057C00073B12BB817274FB74678B8E1A12F5C917A
:1057D000452B0C94000211274FB74678B8E1A12F52
:1057E0005C91452B0C9400021A294FB74678B8E11A
:1057F000A12F5C91452B0C940002162B4FB74678D5
:10580000B8E1A12F5C91452B0C9400021C294FB7E5
:105810004678B8E1A12F5C91452B0C9400021D291C
:105820004FB74678B8E1A12F5C91452B0C9400024C
:1058300018294FB74678B8E1A12F5C91452B0C94FD
:105840000002102B4FB74678B8E1A12F5C91452B91
:105850000C94000298B982B954B83BB8019673B160
:105860002BB8202F182C552777FD5095270F151E84
:1058700018B822B954B83BB80000000073B12BB877
:10588000172B4FB74678B8E1A12F5C91452B0C94AC
:105890000002112B4FB74678B8E1A12F5C91452B40
:1058A0000C9400021A155FB75F7A40EC452B0C94FC
:1058B000000216175FB75F7A40EC452B0C9400028C
:1058C0001C155FB75F7A40EC452B0C9400021D1548
:1058D0005FB75F7A40EC452B0C94000218155FB758
:1058E0005F7A40EC452B0C94000210175FB75F7A8B
:1058F00040EC452B0C94000298B982B954B83BB8DF
:10590000019673B12BB8202F182C552777FD509591
:10591000270F151E18B822B954B83BB80000000074
:1059200073B12BB817175FB75F7A40EC452B0C9417
:10593000000211175FB75F7A40EC452B0C94000210
:1059400041FD0C940002D8B9C2B954B83BB800006C
:10595000000083B12BB8C90DD51DD8B9C2B954B850
:105960003BB80000000093B12BB8C90DD51D0C94B5
:105970000002D8B9C2B954B83BB80000000063B106
:105980002BB8C90DD51DD8B9C2B954B83BB8000061
:105990000000A3B02BB8C90DD51D0C94000298B916
:1059A00082B954B83BB8019623B12BB898B982B9E3
:1059B00054B83BB8019613B02BB841FD0C940002CB
:1059C000822F912D0C94000298B982B954B83BB83B
:1059D000019623B12BB898B982B954B83BB8019657
:1059E00013B02BB855100C940002822F912D0C94FB
:1059F000000298B982B954B83BB8019623B12BB8CC
:105A000098B982B954B83BB8019613B02BB841FD90
:105A10000C940002C919D509D8B9C2B995B924B8EE
:105A2000D6155D9800F12BB85F9350E155B957EB4F
:105A300054B950E05DBD50E55CBD59985F912C981C
:105A40009F935D2F0E945F0054E05A95F1F75C2F01
:105A50000E945F0054E05A95F1F75F910E945F0049
:105A60005CBC599A54B82BB8C919D509D8B9C2B970
:105A700085B924B8D6155D9800F12BB85F9350E135
:105A800055B957EB54B950E05DBD50E55CBD599830
:105A90005F912C988F935D2F0E945F0054E05A9580
:105AA000F1F75C2F0E945F0054E05A95F1F75F9187
:105AB0000E945F005CBC599A54B82BB8822F912D7C
:105AC0000C940002C919D509D8B9C2B9A5B824B82F
:105AD000D6155D9800F12BB85F9350E155B957EB9F
:105AE00054B950E05DBD50E55CBD59985F912C986C
:105AF000AF925D2F0E945F0054E05A95F1F75C2F42
:105B00000E945F0054E05A95F1F75F910E945F0098
:105B10005CBC599A54B82BB8C919D509D8B9C2B9BF
:105B200065B924B8D6155D9800F12BB85F9350E1A4
:105B300055B957EB54B950E05DBD50E55CBD59987F
:105B40005F912C986F935D2F0E945F0054E05A95EF
:105B5000F1F75C2F0E945F0054E05A95F1F75F91D6
:105B60000E945F005CBC599A54B82BB80C94000298
:105B700098B982B954B83BB8019673B12BB8170FD6
:105B80004FB74F7A0C940002C919D509D8B9C2B9D8
:105B900095B924B8D6155D9800F12BB85F9350E104
:105BA00055B957EB54B950E05DBD50E55CBD59980F
:105BB0005F912C989F935D2F0E945F0054E05A954F
:105BC000F1F75C2F0E945F0054E05A95F1F75F9166
:105BD0000E945F005CBC599A54B82BB8C919D5090A
:105BE000D8B9C2B985B924B8D6155D9800F12BB8DB
:105BF0005F9350E155B957EB54B950E05DBD50E5A6
:105C00005CBD59985F912C988F935D2F0E945F0027
:105C100054E05A95F1F75C2F0E945F0054E05A95CA
:105C2000F1F75F910E945F005CBC599A54B82BB8A1
:105C3000992780E00C94000241FF0C940002D8B92F
:105C4000C2B954B83BB80000000083B12BB8C90DED
:105C5000D51DD8B9C2B954B83BB80000000093B103
:105C60002BB8C90DD51D0C94000255100C940002E0
:105C7000D8B9C2B954B83BB80000000083B12BB802
:105C8000C90DD51DD8B9C2B954B83BB80000000041
:105C900093B12BB8C90DD51D0C94000298B982B9E7
:105CA00054B83BB8019623B12BB898B982B954B80F
:105CB0003BB8019613B02BB841FF0C940002822F21
:105CC000912D0C94000298B982B954B83BB8019652
:105CD00073B12BB8B4E10C9401020C94000298B992
:105CE00082B954B83BB8019623B12BB898B982B9A0
:105CF00054B83BB8019613B02BB841FF0C94000286
:105D0000C919D509D8B9C2B995B924B8D6155D98BD
:105D100000F12BB85F9350E155B957EB54B950E0FF
:105D20005DBD50E55CBD59985F912C989F935D2FA8
:105D30000E945F0054E05A95F1F75C2F0E945F00CB
:105D400054E05A95F1F75F910E945F005CBC599A4C
:105D500054B82BB8C919D509D8B9C2B985B924B86E
:105D6000D6155D9800F12BB85F9350E155B957EB0C
:105D700054B950E05DBD50E55CBD59985F912C98D9
:105D80008F935D2F0E945F0054E05A95F1F75C2FCE
:105D90000E945F0054E05A95F1F75F910E945F0006
:105DA0005CBC599A54B82BB8822F912D0C940002E8
:105DB00098B982B954B83BB8019623B12BB898B9B9
:105DC00082B954B83BB8019613B02BB855100C9457
:105DD0000002C919D509D8B9C2B995B924B8D615E0
:105DE0005D9800F12BB85F9350E155B957EB54B96A
:105DF00050E05DBD50E55CBD59985F912C989F9334
:105E00005D2F0E945F0054E05A95F1F75C2F0E94CD
:105E10005F0054E05A95F1F75F910E945F005CBC0F
:105E2000599A54B82BB8C919D509D8B9C2B985B986
:105E300024B8D6155D9800F12BB85F9350E155B9A1
:105E400057EB54B950E05DBD50E55CBD59985F918A
:105E50002C988F935D2F0E945F0054E05A95F1F7C4
:105E60005C2F0E945F0054E05A95F1F75F910E9409
:105E70005F005CBC599A54B82BB8822F912D0C94BA
:105E8000000298B982B954B83BB8019673B12BB8E7
:105E90004FBF171F4FB74F7A0C940002C919D5098D
:105EA000D8B9C2B995B924B8D6155D9800F12BB808
:105EB0005F9350E155B957EB54B950E05DBD50E5E3
:105EC0005CBD59985F912C989F935D2F0E945F0055
:105ED00054E05A95F1F75C2F0E945F0054E05A9508
:105EE000F1F75F910E945F005CBC599A54B82BB8DF
:105EF000C919D509D8B9C2B985B924B8D6155D98DC
:105F000000F12BB85F9350E155B957EB54B950E00D
:105F10005DBD50E55CBD59985F912C988F935D2FC6
:105F20000E945F0054E05A95F1F75C2F0E945F00D9
:105F300054E05A95F1F75F910E945F005CBC599A5A
:105F400054B82BB8992788E00C94000240FD0C94BB
:105F50000002D8B9C2B954B83BB80000000083B100
:105F60002BB8C90DD51DD8B9C2B954B83BB800007B
:105F7000000093B12BB8C90DD51D0C940002D8B9FF
:105F8000C2B954B83BB800000000D3B02BB8C90D5B
:105F9000D51DD8B9C2B954B83BB800000000C3B091
:105FA0002BB8C90DD51D0C94000298B982B954B80C
:105FB0003BB8019623B12BB898B982B954B83BB815
:105FC000019613B02BB840FD0C940002822F912D46
:105FD0000C94000298B982B954B83BB8019673B1D9
:105FE0002BB8572F10930E090E9408720C940002D0
:105FF00098B982B954B83BB8019623B12BB898B977
:1060000082B954B83BB8019613B02BB840FD0C943C
:106010000002C919D509D8B9C2B995B924B8D6159D
:106020005D9800F12BB85F9350E155B957EB54B927
:1060300050E05DBD50E55CBD59985F912C989F93F1
